:100000000C9488010C945D020C94A5010C943A02A6
:100010000C94A5010C9405020C94A5010C94A50167
:100020000C94A5010C9418050C94A5010C94A50141
:100030000C94A5010C9490020C94A5010C94A501BC
:100040000C9418100C94A5010C94A5010C94A50116
:100050000C94A5010C94C4010C94A5010C94A50169
:100060000C94A5010C94A501202533642E2564254C
:100070006300253032643A25303264002532643A18
:10008000253032642025636D00255320252D640022
:10009000EA00E400DE00D800D200CC00C600C000B8
:1000A000BA00B400AE00A800646563656D006E6FB1
:1000B00076656D006F63746F620020736570740005
:1000C000617567737400206A756C7900206A756EBB
:1000D000650020206D617900617072696C006D614E
:1000E0007263680020206665620020206A616E00ED
:1000F000253032642F253032642F253032640040A1
:10010000013801300127011E0116010D01736174D0
:10011000757264617900206672696461790074683F
:10012000757273646179007765646E7364617900D8
:100130007475657364617900206D6F6E6461790018
:100140002073756E646179004A011F1C1F1E1F1EFB
:100150001F1F1E1F1E1F00030205000305010406CA
:1001600002047472696D20252D3364002064737459
:10017000206F2E662E662E0020647374206F2E6E04
:100180002E20006575722D32346872007573612DF2
:100190003132687200627269742061757400627233
:1001A000697420252D32642000AB015A1E1E281EC2
:1001B0001E3C1E37B6010B10120F0D0E1113C0019D
:1001C00003070809060A050C0476657220322E31F1
:1001D0003400D401FC60DAF266B6BEE0FEE6E0016F
:1001E000FA3E1A7ADE8EF62E6078AE1CAA2A3ACE35
:1001F000F30AB61E3838B86E76DA736E6F6F7A65AA
:1002000000736E6F6F7A696E67007475726E696ED7
:1002100067206F6E20627574746F6E7300747572F0
:100220006E696E67206F6E20616C61726D7377000E
:1002300076666420696E697400626F6F73742069FA
:100240006E697400737065616B657220696E6974A4
:1002500000636C6F636B20696E697400616C61721E
:100260006D20696E697400696E697420646F6E65D3
:1002700000696365747562650073657420616C6103
:10028000726D007365742074696D65004368726FE8
:100290006E6F446F742073657421007365742064FD
:1002A000617465005365742064617900736574201E
:1002B00062726974007365742072676E20007365E2
:1002C000742064737400736574207472696D0043E4
:1002D00068726F6E6F446F7420636865636B20662D
:1002E00061696C65642100616C61726D206F666686
:1002F00000616C61726D206F6E0063005D007D00B7
:1003000074776920253032783A253032780D0A002A
:1003100011241FBECFEFD8E0DEBFCDBF11E0A0E0BB
:10032000B1E0E2E5F1E302C005900D92A031B10722
:10033000D9F711E0A0E1B1E001C01D92A834B107E6
:10034000E1F70E94B5130C94A7180C9400000BC0A1
:10035000209110013091110143E0283E3407C0F391
:10036000885E9340A895109211011092100123E02D
:10037000893E920768F720911001309111012817EA
:100380003907C8F3A895089578941F920F920FB675
:100390000F9211242F933F938F939F938091780016
:1003A00090917900392F20E090E0822B932B21E06F
:1003B0008B33920728F4009719F48AE590E002C085
:1003C0008EE190E02091460125FF16C020913D016D
:1003D00030E02817390728F420913D012F5F209342
:1003E0003D0120913D0130E08217930728F4809170
:1003F0003D01815080933D019F918F913F912F91BD
:100400000F900FBE0F901F90189578941F920F9227
:100410000FB60F9211248F939F934D9B05C010929E
:10042000200110921F010CC080911F0190912001AA
:10043000009731F481E090E09093200180931F01B8
:100440004C9B05C010922401109223010CC0809196
:10045000230190912401009731F481E090E0909382
:100460002401809323019F918F910F900FBE0F90D5
:100470001F90189578941F920F920FB60F92112427
:100480008F939F93E098189B05C0109222011092C1
:1004900021010CC08091230190912401009731F437
:1004A00081E090E090932201809321019F918F91B0
:1004B0000F900FBE0F901F90189578941F920F9277
:1004C0000FB60F9211248F939F93E0984A9B11C00F
:1004D0001092280110922701809125019091260108
:1004E0000097B9F481E090E0909326018093250174
:1004F00010C0109226011092250180912701909141
:100500002801009731F481E090E0909328018093D6
:1005100027019F918F910F900FBE0F901F901895FC
:1005200078941F920F920FB60F9211248F939F937E
:10053000809133019091340101979093340180931D
:100540003301009741F4809181008D7F8093810079
:1005500085B1897F85B99F918F910F900FBE0F90C4
:100560001F9018956AE00E943A158295807F892B2A
:100570000895982F92959F70990F292F220F220F7F
:10058000290F8F70820F0895282F8E518D3308F018
:100590002EE1822F65E00E943A15992311F02B5F1E
:1005A000291B822F0895E6EBF0E080818064808330
:1005B0008081806280831092B00085E08093B100DA
:1005C000E1E6F0E080E88083108281E080937000B3
:1005D000089588E090E00E94BA176CE30E943A15F3
:1005E00090931A0187E090E00E94BA1768E10E9498
:1005F0003A159093380108958EE284B988E48AB957
:1006000089E187B984E38BB981E085B995E090935E
:10061000680080936B0080E380936D00089585B13E
:10062000866085B982E38093800088E180938100B1
:10063000E6E8F0E08AEF90E0918380838081918109
:1006400096958795909389008093880090938B006E
:1006500080938A0008950F931F93CF938B01C42F2B
:100660009C0140E050E060E472E48FE090E00E9482
:100670008F1530938700209386008091860090919B
:1006800087009695879590938B0080938A0090932E
:1006900089008093880010933401009333011092F5
:1006A00085001092840080918000CC2311F0806836
:1006B00001C08F778093800080916F00816080936C
:1006C0006F0080918100826080938100CF911F91A3
:1006D0000F91089584EF91E065E070E041E00E94A1
:1006E0002B03089589E090E00E94BA170E94C4028B
:1006F000809345019091460195FD05C080933D0191
:1007000080913D0187BD83E084BD81E085BD84B5D6
:10071000806884BD80916E00816080936E00089532
:100720008EE090E00E94BA17882321F08091460164
:10073000806203C0809146018F7D809346011092B4
:100740001B0110921C0110921D0110921E011092AB
:100750001801109217018091460185FF06C08AE5B5
:1007600080933D0180913D0187BD82E480937C00B0
:1007700084E080937E0010927B008FEA80937A0061
:1007800080917A00806480937A000895CF93DF93FC
:10079000C82FD0E0C053D84F81E090E0633010F014
:1007A00080E090E0C81BD90BE62FF0E0EB5AFE4F3B
:1007B000E4919E01240F311DCE0196958795969563
:1007C0008795280F391FCE0160E971E00E94461518
:1007D000260F371FCE0164E670E00E944615261BE7
:1007E000370B2E0F311DC90167E070E00E944615DE
:1007F000DF91CF9108959C0183709070009739F438
:10080000C90164E670E00E944615009761F4C901D1
:1008100060E971E00E94461521E030E0009729F080
:1008200020E030E002C021E030E0822F0895CF9335
:10083000DF930F92CDB7DEB7623049F490E080537A
:10084000984F69830E94FB036981882331F4E62F66
:10085000F0E0E75BFE4F849101C08DE10F90DF91E6
:10086000CF910895CF93DF93D42FC22F909146015B
:1008700093FF40C020911401962F9450222381F4BD
:100880009730B0F1633029F44EE00E94C6039EE039
:100890000FC06B3079F547E00E94C60397E018C09F
:1008A000963030F1633071F44FE10E94C6039FE14E
:1008B000981B9D17B8F0D917C1F481E090E0C230C1
:1008C000D0F413C06A30B1F44FE10E94C6039FE137
:1008D000981BD91738F0D91741F481E090E0CC2368
:1008E00051F003C081E090E006C080E090E003C0DA
:1008F00081E001C080E0DF91CF910895CF93DF9335
:10090000CDB7DEB727970FB6F894DEBF0FBECDBFC9
:100910008DE090E00E94BA17882321F08091460173
:10092000886003C080914601877F8093460180EDF7
:1009300067E047E09E012F5F3F4F0E94FF11FE01DD
:10094000319680E090E02191019630E02817390738
:1009500021F487309105B9F763C08FEC92E061E034
:100960000E949B128091460182604FC080ED60E042
:1009700047E09E012F5F3F4F0E94FF11809142018F
:100980009981981799F383B5826883BD1092B2005C
:1009900083B58F7783BD89810E94B902809342011C
:1009A0008A810E94B902809335018B818F730E94E6
:1009B000B902809315018D810E94B90280932901AB
:1009C0008E818F710E94B90280933E018F818E5477
:1009D0000E94B902809319017894809146018D7F1D
:1009E000809346018091190160913E014091290157
:1009F000209115010E943204882321F08091460144
:100A0000816003C0809146018E7F809346012796C6
:100A10000FB6F894DEBF0FBECDBFDF91CF91089522
:100A2000F89480ED60E00E94C011809342019ECF57
:100A300078941F920F920FB60F9211242F933F9329
:100A40004F935F936F937F938F939F93AF93BF93D6
:100A5000CF93EF93FF93809146018061809346018D
:100A6000809142018F5F80934201809142018C33DB
:100A700070F13091150180914601109242019091E0
:100A800035019F5F909335019091460196FF1FC0FD
:100A90002091380190E081709070830F911D68E182
:100AA00070E00E945A15281791F490911A018091D4
:100AB0003501981761F481E080933A011092440166
:100AC00010924301809180008F7780938000809105
:100AD00035018C33E0F010923501809115018F5F64
:100AE000809315018091190160913E014091290187
:100AF000209115010E943204882321F08091460143
:100B0000816003C0809146018E7F80934601809171
:100B10001501883138F010921501809129018F5FFD
:100B200080932901C09129018091190160913E01B2
:100B30000E9417048C1740F481E080932901809172
:100B40003E018F5F80933E0180913E018D3040F0E9
:100B5000809119018F5F8093190181E080933E019C
:100B60008091430190914401009729F0019790935F
:100B7000440180934301809140019091410100978D
:100B800029F001979093410180934001FF91EF91EB
:100B9000CF91BF91AF919F918F917F916F915F9115
:100BA0004F913F912F910F900FBE0F901F9018956E
:100BB00089E0EAE2F1E0DF011D928A95E9F78AEF28
:100BC00092E061E00E949B120895282F362F842F17
:100BD0006AE00E943A15E92FF0E0EC52FE4FE491F2
:100BE000E0933201E82FF0E0EC52FE4FE491E09305
:100BF00031019330C1F0943028F4913081F092307B
:100C000050F407C0953059F0953038F0963059F4CB
:100C100008C088E009C080E407C084E005C082E025
:100C200003C080E201C080E880932D0180933001F1
:100C30004AE0832F642F0E943A15E92FF0E0EC522E
:100C4000FE4FE491E0932F01E82FF0E0EC52FE4FCD
:100C5000E491E0932E0180911401882311F5822FF5
:100C600090E00B966CE070E00E945A1501966AE0E5
:100C700070E00E945A15FC01EC52FE4FE491E093A3
:100C80002C016C527E4FFB01649160932B0180918B
:100C90002A012C3010F0816001C08E7F80932A01E0
:100CA0000895822F68E10E943A15892F642F0E94CF
:100CB0003A15E92FF0E0EC52FE4FE491E0932C015D
:100CC000E82FF0E0EC52FE4FE491E0932B01089501
:100CD00087FF03C08F7791E001C090E0282F215655
:100CE0002A3128F4E82FF0E0E158FE4F08C0282F01
:100CF00020532A3060F4E82FF0E0EC55FE4FE491E9
:100D0000A62FB0E0A65DBE4FE92BEC930895A62F69
:100D1000B0E0A65DBE4F8D3219F492609C930895A9
:100D20001C9208950F931F93CF93DF93EC018BE7F1
:100D30000E948712CE010E94CC128EEF92E061E0F9
:100D40000E949B120E94D80509E011E0FE018491E7
:100D5000882399F08E3251F41150E12FF0E0E65DD6
:100D6000FE4F8081816080830F5F03C0612F0E94EE
:100D7000680621961F5F101748F3DF91CF911F91EE
:100D80000F910895EF92FF920F931F93CF93DF93EC
:100D90008EEB92E00E94920685E090E090934101F4
:100DA00080934001C0E065E0E62EF12CD8E0A895E4
:100DB00000913B0110E0C80187709070009729F006
:100DC000F0924101E092400109C080914001909170
:100DD0004101009719F48091460118C000FD50C0F0
:100DE00001FF18C080913B018D7F80933B01809172
:100DF0004601CC2359F483FF03C088E791E002C089
:100E00008CE691E00E949206CCE004C0806880935A
:100E1000460136C002FFCBCF80913B018B7F809390
:100E20003B01CC3021F6809146018D27809346010D
:100E30008091460183FF03C088E791E002C08CE601
:100E400091E00E9492066091460168708DE090E00A
:100E50000E94C2178091190160913E0140912901C1
:100E6000209115010E943204882321F080914601CF
:100E7000816003C0809146018E7F8093460197CFA9
:100E8000DF91CF911F910F91FF90EF9008950F93F5
:100E90001F93CF93DF9385EB92E00E94920685E04B
:100EA00090E090934101809340018BE090E00E949C
:100EB000BA178093140110E0C5E0D0E001C010E043
:100EC000A89500913B0180913B0190E08770907064
:100ED000009729F0D0934101C093400106C0809152
:100EE0004001909141010097C1F000FD3CC001FF1D
:100EF0001AC080913B018D7F80933B01112369F4DF
:100F000080911401882319F48CE891E002C083E8F1
:100F100091E00E94920611E006C08091460180682F
:100F20008093460120C002FFCBCF80913B018B7F95
:100F300080933B01113019F681E0909114019111D9
:100F400080E080931401882319F48CE891E002C0BA
:100F500083E891E00E9492068BE090E0609114019A
:100F60000E94C217ADCFDF91CF911F910F910895CD
:100F70008F929F92AF92BF92CF92DF92EF92FF92A9
:100F80000F931F93CF93DF9300D000D0CDB7DEB780
:100F900083E892E00E949206F090150100913501DD
:100FA0001091420185E090E09093410180934001CF
:100FB00080913F01846080933F0120E07DE2A72E75
:100FC000B12CECE3CE2ED12CF8E18F2E912CA895EC
:100FD000E0903B01E0FC06C180913B0190E087700E
:100FE0009070009729F0B0924101A092400107C093
:100FF0008091400190914101009709F48EC0E1FE7B
:1010000092C080913B018D7F80933B012223B9F4F4
:10101000F090150100913501109142018F2D602F44
:10102000412F0E94E50580912B01816080932B0167
:1010300080912C01816080932C0121E074C02130CB
:1010400089F48F2D602F412F0E94E50580912E019C
:10105000816080932E0180912F01816080932F0108
:1010600022E061C0223011F020E011C08F2D602FEE
:10107000412F0E94E505809131018160809331010B
:101080008091320181608093320123E04CC0622F55
:10109000695F2F5F80ED422F2C830E9454112C81B9
:1010A0002730A9F7F0921501009335011093420102
:1010B0001092B200812F0E94B2028983802F0E9479
:1010C000B2028A838F2D0E94B2028B8380ED60E092
:1010D00043E09E012F5F3F4F0E94851180911901CF
:1010E00060913E0140912901209115010E94320436
:1010F000882321F080914601816003C080914601E0
:101100008E7F80934601809146018D7F80934601BA
:101110008CE892E061E00E949B1280914601806819
:10112000809346015FC0E2FE52CF80913B018B7FEE
:1011300080933B012130D1F48F2D90E00196B401D2
:101140000E945A15E82EF82E602F412F2C830E9402
:10115000E50580912B01816080932B0180912C010A
:10116000816080932C01E09215013AC02230D9F4BD
:10117000802F90E00196B6010E945A15E82E082FA4
:101180008F2D6E2D412F2C830E94E50580912E011D
:10119000816080932E0180912F01816080932F01C7
:1011A000E09235011DC0233009F011CF812F90E06E
:1011B0000196B6010E945A15E82E182F8F2D602F28
:1011C0004E2D2C830E94E505809131018160809332
:1011D000310180913201816080933201E0924201BD
:1011E0002C81F5CE80913F018B7F80933F010F9042
:1011F0000F900F900F90DF91CF911F910F91FF9063
:10120000EF90DF90CF90BF90AF909F908F90089518
:1012100088E592E090934401809343018AEF91E046
:1012200061E00E949B1281E092E00E949206809110
:1012300046018F778093460188EE93E00E94A701D4
:101240008091460180688093460108950F931F9313
:10125000CF93DF93EC018BE50E948712CE010E94B1
:10126000C0128CEF92E061E00E949B1209E011E055
:101270000FC099819E3239F421968068612F0E94B7
:1012800068060F5F03C0612F0E94680621961F5FEA
:101290008881882311F0101760F3DF91CF911F919F
:1012A0000F9108950F931F93CF93DF93CDB7DEB7C0
:1012B0002B970FB6F894DEBF0FBECDBF80ED61E176
:1012C00042E09E012F5F3F4F0E94FF11998180E015
:1012D0000A8110E0082B192BA6E015950795AA9511
:1012E000E1F70E94D805C801B3E0880F991FBA95AD
:1012F000E1F7800F911F65E070E00E94461560588D
:101300007F4F8DB79EB70A970FB6F8949EBF0FBE5A
:101310008DBFEDB7FEB731968E010D5F1F4FADB794
:10132000BEB712961C930E93119788E690E09383B4
:101330008283CB019695879596958795958384832F
:1013400063707070CB01880F991F43E0660F771FA1
:101350004A95E1F7860F971F9695879596958795FD
:101360009783868386E690E0918780870E94BA15EE
:101370008DB79EB70A960FB6F8949EBF0FBE8DBF6D
:10138000C8010E9426092B960FB6F894DEBF0FBE47
:10139000CDBFDF91CF911F910F9108951F93CF93F0
:1013A000DF93CDB7DEB72A970FB6F894DEBF0FBE36
:1013B000CDBF162F8A870E94D805909114018A8587
:1013C000992391F58C3010F020E701C021E690E0E0
:1013D0000B966CE070E00E945A154DB75EB74A500C
:1013E00050400FB6F8945EBF0FBE4DBFEDB7FEB7CD
:1013F0003196AE014F5F5F4FADB7BEB712965C93AB
:101400004E9311974CE750E0538342838F5F848360
:10141000158216831782208711860E94BA152DB770
:101420003EB7265F3F4F23C04DB75EB74850504090
:101430000FB6F8945EBF0FBE4DBFEDB7FEB7319645
:101440009E012F5F3F4FADB7BEB712963C932E93D0
:10145000119722E730E03383228384831582168339
:1014600017820E94BA152DB73EB7285F3F4F0FB6BF
:10147000F8943EBF0FBE2DBFCE0101960E942609F3
:101480002A960FB6F894DEBF0FBECDBFDF91CF9185
:101490001F910895882351F18091460186FD46C031
:1014A000809146018064809346011092440110921D
:1014B000430181EF92E00E949206809146018F776E
:1014C0008093460188EE93E00E94A7018091380145
:1014D00060911A010E94CE0988EE93E00E94A70154
:1014E000809146018068809346010895809146016D
:1014F00086FF1CC0809146018F7B8093460110922D
:1015000044011092430180913A01882379F087EEDB
:1015100092E061E00E949B1210923A01809181005A
:101520008D7F8093810085B1866085B90895AF92E3
:10153000BF92CF92DF92EF92FF920F931F93CF93C0
:10154000DF9389E792E00E949206C0913801D09122
:101550001A018AE090E090934101809340018091CC
:101560003F01846080933F0110E06AE0E62EF12C99
:101570007CE3C72ED12CE8E1AE2EB12CA8950091CA
:101580003B0100FDA0C080913B0190E0877090700E
:10159000009729F0F0924101E09240011CC0809137
:1015A0004001909141010097B1F48091460180681B
:1015B00080934601C0933801D0931A01609138019D
:1015C00087E090E00E94C21760911A0188E090E0E5
:1015D0000E94C21778C001FF3FC080913B018D7F00
:1015E00080933B01112381F48C2F6D2F0E94CE0933
:1015F00080912B01816080932B0180912C0181606F
:1016000080932C0111E028C0113081F48C2F6D2FB4
:101610000E94CE0980912E01816080932E018091DD
:101620002F01816080932F0112E016C0C093380112
:10163000D0931A016091380187E090E00E94C217B0
:1016400060911A0188E090E00E94C21780914601E3
:1016500080688093460137C002FF90CF80913B01A4
:101660008B7F80933B011130A9F48C2F90E0019681
:10167000B5010E945A15C82F6D2F0E94CE09809186
:101680002B01816080932B0180912C0181608093DC
:101690002C0174CF123009F071CF8D2F90E001969C
:1016A000B6010E945A15682FD82F8C2F0E94CE09A0
:1016B00080912E01816080932E0180912F018160A5
:1016C00080932F015BCF80913F018B7F80933F01FF
:1016D000DF91CF911F910F91FF90EF90DF90CF900E
:1016E000BF90AF900895EF92FF921F93CF93DF9337
:1016F000CDB7DEB72B970FB6F894DEBF0FBECDBFC8
:10170000E0903E01109129018091460180FF0EC0BA
:1017100080911501873151F41F5F809119016E2D61
:101720000E941704811710F4E39411E00E94D80579
:101730006E2D70E0660F771F62577F4FCE010196C6
:1017400042E050E00E94AA158DB79EB708970FB6E9
:10175000F8949EBF0FBE8DBFEDB7FEB73196A3E0E4
:10176000EA2EF12CEC0EFD1EADB7BEB71296FC9220
:10177000EE92119789E890E09383828389819A8120
:1017800095838483168317820E94BA158DB79EB7FE
:1017900008960FB6F8949EBF0FBE8DBFC7010E947A
:1017A00026092B960FB6F894DEBF0FBECDBFDF9192
:1017B000CF911F91FF90EF9008950F931F93CF93B8
:1017C000DF93CDB7DEB72C970FB6F894DEBF0FBE10
:1017D000CDBF4C876B878A870E94D8052DB73EB74F
:1017E0002A5030400FB6F8943EBF0FBE2DBFEDB764
:1017F000FEB731968E010F5F1F4FADB7BEB7129681
:101800001C930E93119720EF30E0338322836B8576
:10181000648315824C85468317828A85808711866A
:101820000E94BA152DB73EB7265F3F4F0FB6F8940A
:101830003EBF0FBE2DBFC8010E9426092C960FB6D1
:10184000F894DEBF0FBECDBFDF91CF911F910F91F6
:101850000895AF92BF92CF92DF92EF92FF920F93D3
:101860001F93CF93DF9300D000D0CDB7DEB78BE9C5
:1018700092E00E94920685E090E09093410180936F
:10188000400110913E01F0902901009119018091D1
:101890003F01846080933F01EE2435E0A32EB12CFC
:1018A00044E6D42EA895C0903B0180913B0190E086
:1018B00087709070009729F0B0924101A09240018A
:1018C00007C08091400190914101009709F4B4C094
:1018D000C0FC15C1C1FEB6C080913B018D7F8093D5
:1018E0003B01EE20F1F480911401882341F084EA59
:1018F00092E061E00E949B1222E0E22E02C0EE2400
:10190000E394802F612F4F2D0E94DD0B80912B01DE
:10191000816080932B0180912C01816080932C0148
:1019200091C081E0E81629F480911401882341F0E8
:1019300023C082E0E816A1F5809114018130C9F43A
:1019400080911401882319F482E0E82E02C0EE246D
:10195000E394802F612F4F2D0E94DD0B80912E018B
:10196000816080932E0180912F01816080932F01EF
:1019700069C0882319F014C0813091F4802F612F41
:101980004F2D0E94DD0B80913101816080933101E8
:1019900080913201816080933201B3E0EB2E52C01E
:1019A000809146018F7780934601802F612F0E949E
:1019B00017048F1508F4F82EF894F092290110936B
:1019C0003E01009319017894802F612F4F2D0E94C2
:1019D000C60389838F2D0E94B2028A83812F0E94C1
:1019E000B2028B83802F0E94B2028C8380ED63E071
:1019F00044E09E012F5F3F4F0E94851180911901A5
:101A000060913E0140912901209115010E9432040C
:101A1000882321F080914601816003C080914601B6
:101A20008E7F80934601802F612F4F2D0E94DD0B0A
:101A30008CED95E00E94A70180914601806880931B
:101A400046015DC0C2FE2ECF80913B018B7F80930B
:101A50003B0181E0E81671F41F5F1D3008F011E0D2
:101A6000802F612F4F2D0E94DD0B80911401882360
:101A700009F515C082E0E81641F5F394802F612F37
:101A80000E9417048F1510F4FF24F394802F612F08
:101A90004F2D0E94DD0B80911401813059F480910B
:101AA0002B01816080932B0180912C0181608093B8
:101AB0002C01F8CE80912E01816080932E018091BF
:101AC0002F01816080932F01EDCE83E0E81609F0AD
:101AD000E9CE802F8F5F6D2D0E943A15092F892F37
:101AE000612F4F2D0E94DD0B809131018160809329
:101AF000310180913201816080933201D3CE809197
:101B00003F018B7F80933F010F900F900F900F90BC
:101B1000DF91CF911F910F91FF90EF90DF90CF90C9
:101B2000BF90AF900895CF93DF93CDB7DEB72B97DB
:101B30000FB6F894DEBF0FBECDBF0E94D8058091CE
:101B4000190160913E01409129010E94C603682F4E
:101B500070E0660F771F61507F4FCE01019642E023
:101B600050E00E94AA1569817A81CE0103960E94F5
:101B7000B315CE0103960E9426092B960FB6F89452
:101B8000DEBF0FBECDBFDF91CF910895AF92BF9260
:101B9000CF92DF92EF92FF920F931F93CF93DF9339
:101BA000CDB7DEB72A970FB6F894DEBF0FBECDBF14
:101BB00086EC92E00E94920685E090E090934101CD
:101BC0008093400180ED60E10E94C011182F809148
:101BD0003F01856080933F0120E0E5E0AE2EB12C0F
:101BE0007E010894E11CF11CF2E6CF2EF1E0DF2E1D
:101BF000A89500913B0180913B0190E08770907027
:101C0000009729F0B0924101A092400106C0809156
:101C1000400190914101009789F100FF35C02B30C0
:101C200069F580913B018E7F80933B0111501D39F6
:101C30000CF413E600D000D000D0EDB7FEB731961B
:101C4000ADB7BEB71296FC92EE921197D382C282C4
:101C5000812F992787FD9095958384832A870E94F9
:101C6000BA158DB79EB706960FB6F8949EBF0FBEF5
:101C70008DBFC7010E9426092A8506C080914601B2
:101C800080688093460169C001FF35C080913B01A7
:101C90008D7F80933B01222319F500D000D000D026
:101CA000EDB7FEB73196ADB7BEB71296FC92EE9285
:101CB0001197D382C282812F992787FD90959583B2
:101CC00084830E94BA158DB79EB706960FB6F89416
:101CD0009EBF0FBE8DBFC7010E9426092BE00BC01F
:101CE0008091460180688093460180ED60E1412F3C
:101CF0000E94541132C002FF7BCF80913B018B7F49
:101D000080933B012B3009F073CF1F5F14360CF02A
:101D10001DE900D000D000D0EDB7FEB73196ADB7C9
:101D2000BEB71296FC92EE921197D382C282812F97
:101D3000992787FD9095958384832A870E94BA15F9
:101D40008DB79EB706960FB6F8949EBF0FBE8DBF97
:101D5000C7010E9426092A854BCF80913F018A7FC7
:101D600080933F012A960FB6F894DEBF0FBECDBF19
:101D7000DF91CF911F910F91FF90EF90DF90CF9067
:101D8000BF90AF900895AF92BF92CF92DF92EF9243
:101D9000FF920F931F93CF93DF93CDB7DEB72997B1
:101DA0000FB6F894DEBF0FBECDBF8CEA92E00E9462
:101DB000920685E090E0909341018093400189E094
:101DC00090E00E94BA178093450110E0A5E0AA2E8A
:101DD000B12C7E010894E11CF11CBEE9CB2EB1E0D0
:101DE000DB2E01C010E0A89500913B0180913B01E2
:101DF00090E087709070009729F0B0924101A09216
:101E0000400109C08091400190914101009719F46F
:101E10008091460135C000FD98C001FF4EC0809101
:101E20003B018D7F80933B0180914601112341F559
:101E300085FD20C000D000D000D0EDB7FEB73196B0
:101E4000ADB7BEB71296FC92EE921197D382C282C2
:101E500080914501848315820E94BA158DB79EB783
:101E600006960FB6F8949EBF0FBE8DBFC7010E94A5
:101E7000260904C085E991E00E94920611E01DC088
:101E800080688093460189E090E0609145010E945E
:101E9000C2176091460160728EE090E00E94C21706
:101EA0008091460185FF03C00E9490034EC080913F
:101EB0007A00877780937A0048C002FF94CF8091A0
:101EC0003B018B7F80933B01113009F08BCF8091D8
:101ED000460185FD04C0809145018A3560F58091F9
:101EE00046018F7D80934601809145018B5F0E9462
:101EF000C4028093450180933D0100D000D000D002
:101F0000EDB7FEB73196ADB7BEB71296FC92EE9222
:101F10001197D382C282848315820E94BA158DB72D
:101F20009EB706960FB6F8949EBF0FBE8DBFC70131
:101F30000E94260958CF8091460180628093460115
:101F400085E991E00E9492064ECF29960FB6F8944B
:101F5000DEBF0FBECDBFDF91CF911F910F91FF90DC
:101F6000EF90DF90CF90BF90AF90089581E58CBD4A
:101F700008958EBD0DB407FEFDCF08958F929F92F8
:101F8000AF92BF92CF92DF92EF92FF920F931F9387
:101F9000E82FF0E0E054FE4FE49121E030E002C091
:101FA000220F331FEA95E2F76901EE24D7FCE09493
:101FB000FE2C80E090E0A62FB0E011E0812E912C65
:101FC000A12CB12C9D01082E02C0359527950A94AD
:101FD000E2F720FF11C0FC01EA54FE4F4491950145
:101FE000840104C0000F111F221F331F4A95D2F72E
:101FF000C02AD12AE22AF32A01968830910511F7E6
:10200000F8948E2D0E94B90F8D2D0E94B90F8C2D42
:102010000E94B90F409A409878941F910F91FF90B9
:10202000EF90DF90CF90BF90AF909F908F900895EA
:1020300078941F920F920FB60F921124CF92DF92D5
:10204000EF92FF920F931F932F933F934F935F93C2
:102050006F937F938F939F93AF93BF93CF93DF93B0
:10206000EF93FF9380913C018F5F80933C018F3110
:1020700008F499C080913D0187BD10923C01809188
:10208000100190911101019690931101809310011C
:1020900080913A01882349F1809143019091440154
:1020A000009719F580911201909113010196909378
:1020B00013018093120121E08D329207B0F010924B
:1020C00013011092120140913A01407880EA9FE09A
:1020D00068E572E00E942B0380913A0187FD05C0FC
:1020E00080913A018C5F80933A0100E010E0CFE1EB
:1020F000D1E088EEC82E83E0D82E91E0E92EF12CB5
:10210000288139812115310509F446C0293131056D
:10211000E0F02931310551F420913B01C701002E37
:1021200002C0880F991F0A94E2F721C080913F01F5
:1021300090E0002E02C0959587950A94E2F780FF03
:102140002BC083E0283E380728F42F5F3F4F3983A8
:10215000288322C083E0283E3807A1F420913B0168
:10216000C701002E02C0880F991F0A94E2F7282B9E
:1021700020933B010E946A0388819981019699838B
:1021800088830AC02F5F3F4F3983288384E0203B38
:10219000380710F0D982C88222960F5F1F4F053092
:1021A000110509F0ADCF809147018F5F8093470102
:1021B00090911601E92FF0E0E555FE4FE4918E175E
:1021C000E0F1109247019F5F90931601993060F102
:1021D000109216018091460187FF26C0809143012D
:1021E000909144010097A9F08091360190913701B8
:1021F0000196909337018093360183339105A0F0C7
:10220000109237011092360180912A0192E08927BD
:1022100009C09091460180912A0196FF02C0826018
:1022200001C08D7F80932A0180911601E82FF0E094
:10223000E65DFE4F60810E94BE0FFF91EF91DF913E
:10224000CF91BF91AF919F918F917F916F915F914E
:102250004F913F912F911F910F91FF90EF90DF9041
:10226000CF900F900FBE0F901F90189584EA809327
:10227000BC008091BC0087FFFCCF9091B900987F93
:10228000983029F081E0903119F480E0089580E0E1
:1022900008958093BB0084E88093BC008091BC00CB
:1022A00087FFFCCF089508951F93CF93DF93C82F26
:1022B000D62F142F0E9436118823F9F48C2F8E7F8D
:1022C0000E9449118091B900883171F48D2F0E94CC
:1022D00049118091B900883239F4812F0E94491147
:1022E0008091B900883219F08091B90006C084E964
:1022F0008093BC0080E090E004C01092BC008FEF9F
:102300009FEFDF91CF911F910895FF920F931F933D
:10231000CF93DF93182F062FF42EE9010E94361178
:10232000882321F5812F8E7F0E9449118091B90069
:10233000883179F4802F0E9449118091B900883248
:1023400069F007C088810E9449118091B9008832E4
:1023500019F08091B9000AC02196FA94FF2091F7F4
:1023600084E98093BC0080E090E004C01092BC003F
:102370008FEF9FEFDF91CF911F910F91FF90089505
:10238000CF93DF93C82FD62F0E943611882381F573
:102390008C2F8E7F0E9449118091B9008831F1F411
:1023A0008D2F0E9449118091B9008832B9F40E94A2
:1023B00036118823E9F48C2F81600E9449118091A5
:1023C000B900803459F484E88093BC008091BC004B
:1023D00087FFFCCF8091B900883519F08091B90052
:1023E00007C08091BB0094E99093BC0090E004C0CA
:1023F0001092BC008FEF9FEFDF91CF910895FF9275
:102400000F931F93CF93DF93182F062FF42EE9011C
:102410000E943611882309F046C0812F8E7F0E94CA
:1024200049118091B900883161F5802F0E944911CE
:102430008091B900883229F50E943611882399F5D8
:10244000812F81600E9449118091B900803409F187
:1024500018C021E0F21659F48093BC002091BC0012
:1024600027FFFCCF2091B900283571F00AC0909366
:10247000BC002091BC0027FFFCCF2091B900203583
:1024800019F08091B9000FC02091BB002993FA94F4
:1024900002C094EC84E8FF20E1F684E98093BC005C
:1024A00080E090E004C01092BC008FEF9FEFDF91BE
:1024B000CF911F910F91FF9008951092B90080E283
:1024C0008093B800089505C081509EE100009150AE
:1024D000E9F78823C9F708950AC02FEF39E648E1E4
:1024E000215030404040E1F700C000008150882377
:1024F000A1F708959093C5008093C40088E180936C
:10250000C1008EE08093C200519A50980895909136
:10251000C00095FFFCCF8093C60080E090E0089556
:102520008091C00087FFFCCF8091C6000895809104
:10253000C00080780895EF92FF921F93CF93DF93AE
:102540000F92CDB7DEB77C0110E005C069830E9411
:1025500087121F5F6981F701E10FF11D84918823C4
:10256000A9F7662331F08AE00E9487128DE00E946D
:1025700087120F90DF91CF911F91FF90EF900895F8
:10258000CF93DF93EC0102C00E94871289918823C8
:10259000D9F7DF91CF910895CF93DF93EC01FE013E
:1025A00021968491882319F00E948712F8CFDF9139
:1025B000CF910895CF93C82F82958F708A3010F4F1
:1025C000805D01C0895A0E9487122C2F30E02F7045
:1025D00030708C2F8F702A30310514F4805D01C06B
:1025E000895A0E948712CF910895CF93C82F892FBF
:1025F0000E94DA128C2F0E94DA12CF910895CF92A6
:10260000DF92EF92FF926B017C01C7010E94F512ED
:10261000C6010E94F512FF90EF90DF90CF900895D1
:10262000BF92CF92DF92EF92FF920F931F93CF93BF
:10263000DF938C0125E0E22EF12C20E0C0E1D7E20F
:102640003AE0C32ED12CC801BE010E944615B62E19
:10265000662329F4222319F4C130D10529F48B2DE6
:10266000805D0E94871221E06B2D70E06C9FC0019D
:102670006D9F900D7C9F900D1124081B190BCE01AE
:10268000B6010E944615EB010894E108F108E11437
:10269000F104C9F6DF91CF911F910F91FF90EF9058
:1026A000DF90CF90BF9008954F925F926F927F928C
:1026B0008F929F92AF92BF92CF92DF92EF92FF9252
:1026C0000F931F93CF93DF934B015C010AE010E05F
:1026D000C0E0C12C4AECD42E4AE9E42E4BE3F42EA0
:1026E0005AE0452E512C612C712CC501B401A70173
:1026F00096010E946D15D22F222341F4CC2331F490
:1027000081E0C816D104E104F10429F48D2F805D25
:102710000E948712C1E06D2F70E080E090E0A70179
:1027200096010E941B15DC01CB01881A990AAA0A9E
:10273000BB0AC701B601A30192010E946D15690190
:102740007A010150104089F6DF91CF911F910F91CE
:10275000FF90EF90DF90CF90BF90AF909F908F90C1
:102760007F906F905F904F90089515BC569A5E9839
:102770001092600088E10FB6F89480936000109288
:1027800060000FBE8091600080628093600088E0EE
:10279000809360002FE088E190E00FB6F894A89550
:1027A000809360000FBE20936000A8950E94FC02F9
:1027B0005B988AE092E061E00E949B128DE192E0DA
:1027C00061E00E949B1281E0809369008DBB809143
:1027D000460180688093460180E392E061E00E94B8
:1027E0009B1281E58CBD89E392E061E00E949B121F
:1027F0000E9472038BE090E00E94BA17809314014C
:1028000084E492E061E00E949B120E940F0381E544
:1028100092E061E00E949B120E94D3020E947E041B
:102820000E94900378948CE592E061E00E949B12F4
:102830000E94E9024A9B04C080914601806403C063
:10284000809146018F7B8093460187E692E061E0AC
:102850000E949B1281E792E00E94920688EE93E02C
:102860000E94A70189EC91E00E94920680EA9FE015
:1028700060ED77E040E00E942B038091330190915E
:1028800034010097D1F7C0E008E110E0D4E0A8954A
:1028900080913B0183FF08C080913B01877F80933B
:1028A0003B0181E00E944A0A80913B0184FF08C0FD
:1028B00080913B018F7E80933B0180E00E944A0A19
:1028C0008091460187FF3FC08091460184FF3BC055
:1028D000209115018091460190E081709070820FE7
:1028E000911DB8010E945A15F82E8091460181FF72
:1028F00007C08091420180FF03C00E94D80507C035
:1029000060913501409142018F2D0E94E505809133
:10291000460182FF06C080913A01882311F40E948B
:102920006A0382E0F81651F4809135018E3131F45A
:1029300080914201882311F40E947E048091460117
:102940008F7E809346018091460187FF12C080915F
:102950003A01882371F080913B0190E0877090707C
:10296000009739F080913B01887F80933B010E9462
:10297000080980913B0180FF2BC080913B018E7F35
:1029800080933B018091460187FF06C080914601FC
:102990008F7780934601C0E0EC2FF0E0EE0FFF1F31
:1029A000E050FF4FCF5F85919491FC010995EC2F8A
:1029B000F0E0EE0FFF1FE050FF4F859194910097DC
:1029C00009F065CF80913B018E7F80933B0120C051
:1029D00080913B0182FF20C080913B018B7F8093DF
:1029E0003B01809146018F77809346010E94930DB1
:1029F0008CED95E00E94A7010E94730B8CED95E091
:102A00000E94A7010E9452098CED95E00E94A70147
:102A10008091460180680CC080913B0181FF37CFD7
:102A200080913B018D7F80933B01809146018D27F2
:102A3000809346012CCF629FD001739FF001829F4B
:102A4000E00DF11D649FE00DF11D929FF00D839F3D
:102A5000F00D749FF00D659FF00D9927729FB00DDA
:102A6000E11DF91F639FB00DE11DF91FBD01CF01ED
:102A700011240895991B79E004C0991F961708F056
:102A8000961B881F7A95C9F780950895AA1BBB1BD2
:102A900051E107C0AA1FBB1FA617B70710F0A61B5E
:102AA000B70B881F991F5A95A9F780959095BC017F
:102AB000CD01089597FB092E07260AD077FD04D093
:102AC000E5DF06D000201AF4709561957F4F0895D8
:102AD000F6F7909581959F4F0895A1E21A2EAA1BB3
:102AE000BB1BFD010DC0AA1FBB1FEE1FFF1FA217BE
:102AF000B307E407F50720F0A21BB30BE40BF50BBB
:102B0000661F771F881F991F1A9469F76095709543
:102B1000809590959B01AC01BD01CF01089597FB75
:102B2000092E05260ED057FD04D0D7DF0AD0001C91
:102B300038F450954095309521953F4F4F4F5F4F5A
:102B40000895F6F790958095709561957F4F8F4F1A
:102B50009F4F0895FB01DC0102C005900D9241508A
:102B60005040D8F70895FB01DC0105900D9200203C
:102B7000E1F70895AEE0B0E0E0ECF5E10C947E18EA
:102B80000D891E898EE08C831A8309838FEF9FE75E
:102B90009E838D83AE01475E5F4FCE0101966F89A4
:102BA000788D0E94DC15EF81F885E00FF11F10820F
:102BB0002E96E4E00C949A18ADE0B0E0E2EEF5E178
:102BC0000C9470183C017D876C875A01FC011782B8
:102BD0001682838181FFC8C12E010894411C511CBB
:102BE000F3019381EC85FD8593FD859193FF8191A0
:102BF000FD87EC87882309F4B3C1853241F493FD46
:102C0000859193FF8191FD87EC87853229F490E0CF
:102C1000B3010E94E617E4CFFF24EE2410E0103247
:102C2000B0F48B3269F08C3228F4803251F0833268
:102C300071F40BC08D3239F0803349F411602CC02F
:102C40001260146029C0186027C0106125C017FDEC
:102C50002EC0282F20532A3098F416FF08C08F2D3D
:102C6000880FF82EFF0CFF0CF80EF20E15C08E2DFB
:102C7000880FE82EEE0CEE0CE80EE20E10620CC08F
:102C80008E3221F416FD6CC1106406C08C3611F42E
:102C9000106802C0883659F4EC85FD8593FD859156
:102CA00093FF8191FD87EC87882309F0B8CF982F97
:102CB0009554933018F09052933038F424E030E07B
:102CC000A20EB31E3FE339830FC0833631F0833742
:102CD00081F0833509F05AC022C0F50180818983D3
:102CE00022E030E0A20EB31E21E0C22ED12C420120
:102CF00014C092E0292E312C2A0C3B1CF501808057
:102D0000918016FF03C06F2D70E002C06FEF7FEF60
:102D1000C4010E94DB176C0151011F7715C082E0CE
:102D2000282E312C2A0C3B1CF5018080918016FF47
:102D300003C06F2D70E002C06FEF7FEFC4010E94EF
:102D4000D0176C011068510113FD1CC006C080E251
:102D500090E0B3010E94E617EA948E2D90E0C81629
:102D6000D906A8F30FC0F40117FD859117FF8191D3
:102D70004F0190E0B3010E94E617E110EA94089435
:102D8000C108D108C114D10471F7E7C0843611F02D
:102D9000893651F5F50117FF07C080819181A28125
:102DA000B38124E030E008C080819181AA2797FD9B
:102DB000A095BA2F22E030E0A20EB31E012F0F76AD
:102DC000B7FF08C0B095A095909581959F4FAF4FE4
:102DD000BF4F0068BC01CD01A2012AE030E00E9493
:102DE0001218D82ED4183FC0853721F41F7E2AE050
:102DF00030E020C0197F8F36A9F0803720F4883565
:102E000009F0AEC00BC0803721F0883709F0A8C0A8
:102E100001C0106114FF09C0146007C014FF08C08E
:102E2000166006C028E030E005C020E130E002C0B6
:102E300020E132E0F50117FF07C0608171818281D6
:102E4000938144E050E006C06081718180E090E0B1
:102E500042E050E0A40EB51EA2010E941218D82E26
:102E6000D418012F0F7706FF09C00E7FDF1430F44E
:102E700004FF06C002FD04C00F7E02C01D2D01C06C
:102E80001F2D802F90E004FF0CC0FE01ED0DF11D01
:102E90002081203311F4097E09C002FF06C01E5FA5
:102EA00005C086789070009709F01F5F802E9924E6
:102EB00003FD12C000FF0DC0FD2C1E1550F4FE0CCA
:102EC000F11A1E2D06C080E290E0B3010E94E617C1
:102ED0001F5F1E15C0F304C01E1510F4E11A01C0D7
:102EE000EE2484FE0FC080E390E0B3010E94E61759
:102EF00082FE1FC081FE03C088E590E010C088E715
:102F000090E00DC0C40186789070009791F081FC2C
:102F100002C080E201C08BE207FD8DE290E0B301C8
:102F20000E94E61706C080E390E0B3010E94E61716
:102F3000FA94DF14C0F3DA94F201ED0DF11D8081F3
:102F400090E0B3010E94E617DD20A9F706C080E2F9
:102F500090E0B3010E94E617EA94EE20C1F740CE5C
:102F6000F3018681978102C08FEF9FEF2D96E2E1FA
:102F70000C948C18F999FECF92BD81BDF89A9927CF
:102F800080B50895262FF999FECF1FBA92BD81BD55
:102F900020BD0FB6F894FA9AF99A0FBE01960895DB
:102FA000FC010590615070400110D8F78095909514
:102FB0008E0F9F1F0895FC01615070400190011019
:102FC000D8F7809590958E0F9F1F08950F931F93AC
:102FD000CF93DF938C01EB018B8181FF1BC082FFBC
:102FE0000DC02E813F818C819D812817390764F4A3
:102FF000E881F9810193F983E88306C0E885F985C2
:10300000802F0995009731F48E819F8101969F83CF
:103010008E8302C00FEF1FEFC801DF91CF911F9188
:103020000F910895FA01AA27283051F1203181F13A
:10303000E8946F936E7F6E5F7F4F8F4F9F4FAF4FC0
:10304000B1E03ED0B4E03CD0670F781F891F9A1FD3
:10305000A11D680F791F8A1F911DA11D6A0F711D87
:10306000811D911DA11D20D009F468943F912AE093
:10307000269F11243019305D3193DEF6CF0108957B
:10308000462F4770405D4193B3E00FD0C9F7F6CFAC
:10309000462F4F70405D4A3318F0495D31FD405274
:1030A000419302D0A9F7EACFB4E0A695979587950A
:1030B00077956795BA95C9F70097610571050895E9
:1030C0009B01AC010A2E0694579547953795279595
:1030D000BA95C9F7620F731F841F951FA01D08952D
:1030E0002F923F924F925F926F927F928F929F9218
:1030F000AF92BF92CF92DF92EF92FF920F931F9306
:10310000CF93DF93CDB7DEB7CA1BDB0B0FB6F894B6
:10311000DEBF0FBECDBF09942A88398848885F84F6
:103120006E847D848C849B84AA84B984C884DF8067
:10313000EE80FD800C811B81AA81B981CE0FD11D4B
:103140000FB6F894DEBF0FBECDBFED010895F89421
:02315000FFCFAF
:10315200970AB807290CC30EC2064707C60D00001E
:00000001FF
