S00F0000696365747562652E7372656334
S11300000C9488010C941C020C94A5010C94F90125
S11300100C94A5010C94C4010C94A5010C94A501A5
S11300200C94A5010C949E040C94A5010C94A501B8
S11300300C94A5010C944F020C94A5010C94A501F9
S11300400C94970F0C94A5010C94A5010C94A50194
S11300500C94A5010C94A5010C94A5010C94A50184
S11300600C94A5010C94A501202533642E25642548
S11300706300253032643A25303264002532643A14
S1130080253032642025636D00255320252D64001E
S1130090EA00E400DE00D800D200CC00C600C000B4
S11300A0BA00B400AE00A800646563656D006E6FAD
S11300B076656D006F63746F620020736570740001
S11300C0617567737400206A756C7900206A756EB7
S11300D0650020206D617900617072696C006D614A
S11300E07263680020206665620020206A616E00E9
S11300F0253032642F253032642F2530326400409D
S1130100013801300127011E0116010D01736174CC
S1130110757264617900206672696461790074683B
S1130120757273646179007765646E7364617900D4
S11301307475657364617900206D6F6E6461790014
S11301402073756E646179004A011F1C1F1E1F1EF7
S11301501F1F1E1F1E1F00030205000305010406C6
S113016002047472696D20252D3364002064737455
S1130170206F2E662E662E0020647374206F2E6E00
S11301802E20006575722D32346872007573612DEE
S1130190313268720062726974206175740062722F
S11301A0697420252D32642000AB015A1E1E281EBE
S11301B01E3C1E37B6010B10120F0D0E1113C00199
S11301C003070809060A050C0476657220322E31ED
S11301D03400D401FC60DAF266B6BEE0FEE6E0016B
S11301E0FA3E1A7ADE8EF62E6078AE1CAA2A3ACE31
S11301F0F30AB61E3838B86E76DA736E6F6F7A65A6
S113020000736E6F6F7A696E67007475726E696ED3
S113021067206F6E20627574746F6E7300747572EC
S11302206E696E67206F6E20616C61726D7377000A
S113023076666420696E697400626F6F73742069F6
S11302406E697400737065616B657220696E6974A0
S113025000636C6F636B20696E697400616C61721A
S11302606D20696E697400696E697420646F6E65CF
S113027000696365747562650073657420616C61FF
S1130280726D007365742074696D65004368726FE4
S11302906E6F446F742073657421007365742064F9
S11302A0617465005365742064617900736574201A
S11302B062726974007365742072676E20007365DE
S11302C0742064737400736574207472696D0043E0
S11302D068726F6E6F446F7420636865636B206629
S11302E061696C65642100616C61726D206F666682
S11302F000616C61726D206F6E0063005D007D00B3
S113030074776920253032783A253032780D0A0026
S113031011241FBECFEFD8E0DEBFCDBF11E0A0E0B7
S1130320B1E0E6E1F0E302C005900D92A031B1071F
S1130330D9F711E0A0E1B1E001C01D92A234B107E8
S1130340E1F70E9434130C9409180C9400000BC0BC
S1130350209110013091110143E0283E3407C0F38D
S1130360885E9340A895109211011092100123E029
S1130370893E920768F720911001309111012817E6
S11303803907C8F3A895089578941F920F920FB671
S11303900F9211248F939F934D9B05C010921A01C5
S11303A0109219010CC08091190190911A010097C3
S11303B031F481E090E090931A01809319014C9BF1
S11303C005C010921E0110921D010CC080911D01E8
S11303D090911E01009731F481E090E090931E010A
S11303E080931D019F918F910F900FBE0F901F90CE
S11303F0189578941F920F920FB60F9211248F9331
S11304009F93E098189B05C010921C0110921B0149
S11304100CC080911D0190911E01009731F481E080
S113042090E090931C0180931B019F918F910F90FA
S11304300FBE0F901F90189578941F920F920FB6CD
S11304400F9211248F939F93E0984A9B11C01092AE
S113045022011092210180911F01909120010097A7
S1130460B9F481E090E09093200180931F0110C0C3
S11304701092200110921F0180912101909122017C
S1130480009731F481E090E0909322018093210160
S11304909F918F910F900FBE0F901F901895789495
S11304A01F920F920FB60F9211248F939F938091F6
S11304B02D0190912E01019790932E0180932D018F
S11304C0009741F4809181008D7F8093810085B1F4
S11304D0897F85B99F918F910F900FBE0F901F90C8
S11304E018956AE00E94B7148295807F892B08953D
S11304F0982F92959F70990F292F220F220F290F61
S11305008F70820F0895282F8E518D3308F02EE1BD
S1130510822F65E00E94B714992311F02B5F291BE9
S1130520822F0895E6EBF0E0808180628083109250
S1130530B00085E08093B100E1E6F0E080E88083DC
S1130540108281E080937000089588E090E00E941A
S11305501C176CE30E94B7149093180187E090E095
S11305600E941C1768E10E94B71490933201089509
S11305708EE284B988E48AB989E187B984E38BB9C6
S113058081E085B995E09093680080936B0080E3E7
S113059080936D00089585B1866085B982E3809368
S11305A0800088E180938100E6E8F0E08AEF90E043
S11305B0918380838081918196958795909389001A
S11305C08093880090938B0080938A0008950F9302
S11305D01F93CF938B01C42F9C0140E050E068E44B
S11305E078EE81E090E00E94EA1430938700209333
S11305F086008091860090918700969587959093C8
S11306008B0080938A0090938900809388001093D4
S11306102E0100932D011092850010928400809188
S11306208000CC2311F0806801C08F778093800014
S113063080916F00816080936F008091810082605F
S113064080938100CF911F910F91089584EF91E0E1
S113065065E070E041E00E94E702089589E090E0DF
S11306600E941C170E94830280933F0190914001D5
S113067095FD05C0809337018091370187BD83E0E4
S113068084BD81E085BD84B5806884BD80916E00A1
S1130690816080936E000895CF93DF93C82FD0E0DC
S11306A0C053D84F81E090E0633010F080E090E0D8
S11306B0C81BD90BE62FF0E0EB5AFE4FE4919E01E4
S11306C0240F311DCE019695879596958795280F11
S11306D0391FCE0160E971E00E94C314260F371F51
S11306E0CE0164E670E00E94C314261B370B2E0F64
S11306F0311DC90167E070E00E94C314DF91CF91FE
S113070008959C0183709070009739F4C90164E6E0
S113071070E00E94C314009761F4C90160E971E0BC
S11307200E94C31421E030E0009729F020E030E07B
S113073002C021E030E0822F0895CF93DF930F921F
S1130740CDB7DEB7623049F490E08053984F6983A7
S11307500E9481036981882331F4E62FF0E0E75B8E
S1130760FE4F849101C08DE10F90DF91CF910895E8
S1130770CF93DF93D42FC22F9091400193FF40C0B9
S113078020911401962F9450222381F49730B0F1D4
S1130790633029F44EE00E944C039EE00FC06B309E
S11307A079F547E00E944C0397E018C0963030F189
S11307B0633071F44FE10E944C039FE1981B9D1735
S11307C0B8F0D917C1F481E090E0C230D0F413C07E
S11307D06A30B1F44FE10E944C039FE1981BD91792
S11307E038F0D91741F481E090E0CC2351F003C0F4
S11307F081E090E006C080E090E003C081E001C0A9
S113080080E0DF91CF910895CF93DF93CDB7DEB72A
S113081027970FB6F894DEBF0FBECDBF8DE090E0F2
S11308200E941C17882321F080914001886003C036
S113083080914001877F8093400180ED67E047E02D
S11308409E012F5F3F4F0E947E11FE01319680E092
S113085090E02191019630E02817390721F4873080
S11308609105B9F763C08FEC92E061E00E941A121F
S11308708091400182604FC080ED60E047E09E01BE
S11308802F5F3F4F0E947E1180913C019981981700
S113089099F383B5826883BD1092B20083B58F77D4
S11308A083BD89810E94780280933C018A810E94E1
S11308B0780280932F018B818F730E94780280933A
S11308C015018D810E947802809323018E818F719E
S11308D00E947802809338018F818E540E9478029E
S11308E0809317017894809140018D7F809340011B
S11308F080911701609138014091230120911501E5
S11309000E94B803882321F080914001816003C0D4
S1130910809140018E7F8093400127960FB6F89412
S1130920DEBF0FBECDBFDF91CF910895F89480ED67
S113093060E00E943F1180933C019ECF78941F9207
S11309400F920FB60F9211242F933F934F935F93FF
S11309506F937F938F939F93AF93BF93CF93EF93B3
S1130960FF938091400180618093400180913C011C
S11309708F5F80933C0180913C018C3370F1309106
S113098015018091400110923C0190912F019F5FCD
S113099090932F019091400196FF1FC02091320146
S11309A090E081709070830F911D68E170E00E9467
S11309B0D714281791F49091180180912F0198175A
S11309C061F481E08093340110923E0110923D0164
S11309D0809180008F778093800080912F018C33E9
S11309E0E0F010922F01809115018F5F8093150123
S11309F080911701609138014091230120911501E4
S1130A000E94B803882321F080914001816003C0D3
S1130A10809140018E7F809340018091150188313F
S1130A2038F010921501809123018F5F8093230188
S1130A30C091230180911701609138010E949D03A8
S1130A408C1740F481E080932301809138018F5FFB
S1130A5080933801809138018D3040F080911701E6
S1130A608F5F8093170181E08093380180913D016D
S1130A7090913E01009729F0019790933E01809355
S1130A803D0180913A0190913B01009729F0019733
S1130A9090933B0180933A01FF91EF91CF91BF91E5
S1130AA0AF919F918F917F916F915F914F913F9102
S1130AB02F910F900FBE0F901F90189589E0E4E2DC
S1130AC0F1E0DF011D928A95E9F78AEF92E061E097
S1130AD00E941A120895282F362F842F6AE00E944C
S1130AE0B714E92FF0E0EC52FE4FE491E0932C01AF
S1130AF0E82FF0E0EC52FE4FE491E0932B019330A9
S1130B00C1F0943028F4913081F0923050F407C051
S1130B10953059F0953038F0963059F408C088E093
S1130B2009C080E407C084E005C082E003C080E21D
S1130B3001C080E88093270180932A014AE0832F33
S1130B40642F0E94B714E92FF0E0EC52FE4FE491B9
S1130B50E0932901E82FF0E0EC52FE4FE491E0939A
S1130B60280180911401882311F5822F90E00B96BF
S1130B706CE070E00E94D71401966AE070E00E9475
S1130B80D714FC01EC52FE4FE491E09326016C5221
S1130B907E4FFB01649160932501809124012C30E8
S1130BA010F0816001C08E7F809324010895822F0C
S1130BB068E10E94B714892F642F0E94B714E92FAB
S1130BC0F0E0EC52FE4FE491E0932601E82FF0E0D0
S1130BD0EC52FE4FE491E0932501089587FF03C092
S1130BE08F7791E001C090E0282F21562A3128F414
S1130BF0E82FF0E0E158FE4F08C0282F20532A3098
S1130C0060F4E82FF0E0EC55FE4FE491A62FB0E03D
S1130C10AC5DBE4FE92BEC930895A62FB0E0AC5D1C
S1130C20BE4F8D3219F492609C9308951C920895DE
S1130C300F931F93CF93DF93EC018BE70E9406126F
S1130C40CE010E944B128EEF92E061E00E941A12D4
S1130C500E945E0509E011E0FE018491882399F069
S1130C608E3251F41150E12FF0E0EC5DFE4F8081A3
S1130C70816080830F5F03C0612F0E94EE0521967F
S1130C801F5F101748F3DF91CF911F910F910895C3
S1130C90EF92FF920F931F93CF93DF938EEB92E02B
S1130CA00E94180685E090E090933B0180933A01FE
S1130CB0C0E065E0E62EF12CD8E0A895009135015E
S1130CC010E0C80187709070009729F0F0923B0102
S1130CD0E0923A0109C080913A0190913B0100975A
S1130CE019F48091400118C000FD50C001FF18C0E4
S1130CF0809135018D7F8093350180914001CC2313
S1130D0059F483FF03C088E791E002C08CE691E0C8
S1130D100E941806CCE004C080688093400136C06D
S1130D2002FFCBCF809135018B7F80933501CC308E
S1130D3021F6809140018D278093400180914001EC
S1130D4083FF03C088E791E002C08CE691E00E9433
S1130D5018066091400168708DE090E00E942417AD
S1130D608091170160913801409123012091150170
S1130D700E94B803882321F080914001816003C060
S1130D80809140018E7F8093400197CFDF91CF9176
S1130D901F910F91FF90EF9008950F931F93CF939E
S1130DA0DF9385EB92E00E94180685E090E0909333
S1130DB03B0180933A018BE090E00E941C178093E2
S1130DC0140110E0C5E0D0E001C010E0A895009146
S1130DD035018091350190E087709070009729F07B
S1130DE0D0933B01C0933A0106C080913A0190919F
S1130DF03B010097C1F000FD3CC001FF1AC0809187
S1130E0035018D7F80933501112369F4809114019C
S1130E10882319F48CE891E002C083E891E00E94F1
S1130E20180611E006C0809140018068809340015B
S1130E3020C002FFCBCF809135018B7F8093350199
S1130E40113019F681E090911401911180E08093A2
S1130E501401882319F48CE891E002C083E891E03E
S1130E600E9418068BE090E0609114010E94241700
S1130E70ADCFDF91CF911F910F9108958F929F92E3
S1130E80AF92BF92CF92DF92EF92FF920F931F9394
S1130E90CF93DF9300D000D0CDB7DEB783E892E0E4
S1130EA00E941806F090150100912F0110913C0149
S1130EB085E090E090933B0180933A018091390161
S1130EC084608093390120E07DE2A72EB12CECE30D
S1130ED0CE2ED12CF8E18F2E912CA895E0903501DF
S1130EE0E0FC06C18091350190E087709070009716
S1130EF029F0B0923B01A0923A0107C080913A01D7
S1130F0090913B01009709F48EC0E1FE92C080915C
S1130F1035018D7F809335012223B9F4F0901501BA
S1130F2000912F0110913C018F2D602F412F0E94C1
S1130F306B058091250181608093250180912601B4
S1130F4081608093260121E074C0213089F48F2DC3
S1130F50602F412F0E946B0580912801816080934E
S1130F6028018091290181608093290122E061C0D8
S1130F70223011F020E011C08F2D602F412F0E94EC
S1130F806B0580912B01816080932B0180912C0152
S1130F90816080932C0123E04CC0622F695F2F5F36
S1130FA080ED422F2C830E94D3102C812730A9F787
S1130FB0F092150100932F0110933C011092B2009E
S1130FC0812F0E9471028983802F0E9471028A837B
S1130FD08F2D0E9471028B8380ED60E043E09E01BF
S1130FE02F5F3F4F0E9404118091170160913801D7
S1130FF040912301209115010E94B803882321F018
S113100080914001816003C0809140018E7F809374
S11310104001809140018D7F809340018CE892E0F3
S113102061E00E941A12809140018068809340011F
S11310305FC0E2FE52CF809135018B7F80933501F2
S11310402130D1F48F2D90E00196B4010E94D71481
S1131050E82EF82E602F412F2C830E946B0580917F
S11310602501816080932501809126018160809310
S11310702601E09215013AC02230D9F4802F90E085
S11310800196B6010E94D714E82E082F8F2D6E2DDD
S1131090412F2C830E946B058091280181608093ED
S11310A0280180912901816080932901E0922F0118
S11310B01DC0233009F011CF812F90E00196B601B5
S11310C00E94D714E82E182F8F2D602F4E2D2C83BD
S11310D00E946B0580912B01816080932B0180918C
S11310E02C01816080932C01E0923C012C81F5CE8F
S11310F0809139018B7F809339010F900F900F906D
S11311000F90DF91CF911F910F91FF90EF90DF909F
S1131110CF90BF90AF909F908F90089588E592E014
S113112090933E0180933D018AEF91E061E00E943B
S11311301A1281E092E00E941806809140018F7794
S11311408093400188EE93E00E94A70180914001C2
S113115080688093400108950F931F93CF93DF938A
S1131160EC018BE50E940612CE010E943F128CEF27
S113117092E061E00E941A1209E011E00FC0998127
S11311809E3239F421968068612F0E94EE050F5F2C
S113119003C0612F0E94EE0521961F5F888188237A
S11311A011F0101760F3DF91CF911F910F91089503
S11311B00F931F93CF93DF93CDB7DEB72B970FB663
S11311C0F894DEBF0FBECDBF80ED61E142E09E0129
S11311D02F5F3F4F0E947E11998180E00A8110E0C9
S11311E0082B192BA6E015950795AA95E1F70E94FF
S11311F05E05C801B3E0880F991FBA95E1F7800F27
S1131200911F65E070E00E94C31460587F4F8DB752
S11312109EB70A970FB6F8949EBF0FBE8DBFEDB769
S1131220FEB731968E010D5F1F4FADB7BEB7129654
S11312301C930E93119788E690E093838283CB01ED
S1131240969587959695879595838483637070703A
S1131250CB01880F991F43E0660F771F4A95E1F78A
S1131260860F971F9695879596958795978386837E
S113127086E690E0918780870E941C158DB79EB703
S11312800A960FB6F8949EBF0FBE8DBFC8010E9488
S1131290AC082B960FB6F894DEBF0FBECDBFDF911E
S11312A0CF911F910F9108951F93CF93DF93CDB7E3
S11312B0DEB72A970FB6F894DEBF0FBECDBF162F48
S11312C08A870E945E05909114018A85992391F57D
S11312D08C3010F020E701C021E690E00B966CE022
S11312E070E00E94D7144DB75EB74A5050400FB615
S11312F0F8945EBF0FBE4DBFEDB7FEB73196AE0199
S11313004F5F5F4FADB7BEB712965C934E93119784
S11313104CE750E0538342838F5F848315821683A6
S11313201782208711860E941C152DB73EB7265FB1
S11313303F4F23C04DB75EB7485050400FB6F894A6
S11313405EBF0FBE4DBFEDB7FEB731969E012F5F56
S11313503F4FADB7BEB712963C932E93119722E739
S113136030E03383228384831582168317820E949C
S11313701C152DB73EB7285F3F4F0FB6F8943EBFFC
S11313800FBE2DBFCE0101960E94AC082A960FB65F
S1131390F894DEBF0FBECDBFDF91CF911F910895AA
S11313A0882351F18091400186FD46C0809140011F
S11313B080648093400110923E0110923D0181EFC0
S11313C092E00E941806809140018F77809340013B
S11313D088EE93E00E94A701809132016091180188
S11313E00E94540988EE93E00E94A7018091400175
S11313F080688093400108958091400186FF1CC05D
S1131400809140018F7B8093400110923E011092A5
S11314103D0180913401882379F087EE92E061E008
S11314200E941A1210923401809181008D7F809362
S1131430810085B1866085B90895AF92BF92CF923D
S1131440DF92EF92FF920F931F93CF93DF9389E77D
S113145092E00E941806C0913201D09118018AE0EE
S113146090E090933B0180933A018091390184602C
S11314708093390110E06AE0E62EF12C7CE3C72E5C
S1131480D12CE8E1AE2EB12CA8950091350100FDD8
S1131490A0C08091350190E087709070009729F08A
S11314A0F0923B01E0923A011CC080913A01909184
S11314B03B010097B1F48091400180688093400122
S11314C0C0933201D09318016091320187E090E01B
S11314D00E9424176091180188E090E00E9424176C
S11314E078C001FF3FC0809135018D7F8093350125
S11314F0112381F48C2F6D2F0E94540980912501B2
S1131500816080932501809126018160809326016A
S113151011E028C0113081F48C2F6D2F0E945409E2
S11315208091280181608093280180912901816044
S11315308093290112E016C0C0933201D0931801A0
S11315406091320187E090E00E94241760911801B5
S113155088E090E00E942417809140018068809385
S1131560400137C002FF90CF809135018B7F80937B
S113157035011130A9F48C2F90E00196B5010E9439
S1131580D714C82F6D2F0E945409809125018160C2
S1131590809325018091260181608093260174CF78
S11315A0123009F071CF8D2F90E00196B6010E94A0
S11315B0D714682FD82F8C2F0E94540980912801AA
S11315C081608093280180912901816080932901A1
S11315D05BCF809139018B7F80933901DF91CF916B
S11315E01F910F91FF90EF90DF90CF90BF90AF903D
S11315F00895EF92FF921F93CF93DF93CDB7DEB799
S11316002B970FB6F894DEBF0FBECDBFE090380124
S1131610109123018091400180FF0EC0809115013B
S1131620873151F41F5F809117016E2D0E949D0335
S1131630811710F4E39411E00E945E056E2D70E0B2
S1131640660F771F62577F4FCE01019642E050E04C
S11316500E940C158DB79EB708970FB6F8949EBFDD
S11316600FBE8DBFEDB7FEB73196A3E0EA2EF12C85
S1131670EC0EFD1EADB7BEB71296FC92EE9211971A
S113168089E890E09383828389819A819583848316
S1131690168317820E941C158DB79EB708960FB645
S11316A0F8949EBF0FBE8DBFC7010E94AC082B9655
S11316B00FB6F894DEBF0FBECDBFDF91CF911F915F
S11316C0FF90EF9008950F931F93CF93DF93CDB7BF
S11316D0DEB72C970FB6F894DEBF0FBECDBF4C8794
S11316E06B878A870E945E052DB73EB72A5030402B
S11316F00FB6F8943EBF0FBE2DBFEDB7FEB73196BF
S11317008E010F5F1F4FADB7BEB712961C930E9399
S1131710119720EF30E0338322836B856483158235
S11317204C85468317828A85808711860E941C1502
S11317302DB73EB7265F3F4F0FB6F8943EBF0FBE9E
S11317402DBFC8010E94AC082C960FB6F894DEBFDA
S11317500FBECDBFDF91CF911F910F910895AF922E
S1131760BF92CF92DF92EF92FF920F931F93CF938A
S1131770DF9300D000D0CDB7DEB78BE992E00E94B2
S1131780180685E090E090933B0180933A01109114
S11317903801F09023010091170180913901846090
S11317A080933901EE2435E0A32EB12C44E6D42EE7
S11317B0A895C09035018091350190E087709070B4
S11317C0009729F0B0923B01A0923A0107C08091A2
S11317D03A0190913B01009709F4B4C0C0FC15C1D3
S11317E0C1FEB6C0809135018D7F80933501EE2016
S11317F0F1F480911401882341F084EA92E061E0DD
S11318000E941A1222E0E22E02C0EE24E394802FFA
S1131810612F4F2D0E94630B80912501816080937D
S113182025018091260181608093260191C081E089
S1131830E81629F480911401882341F023C082E042
S1131840E816A1F5809114018130C9F48091140146
S1131850882319F482E0E82E02C0EE24E394802F5A
S1131860612F4F2D0E94630B80912801816080932A
S113187028018091290181608093290169C088230E
S113188019F014C0813091F4802F612F4F2D0E94E4
S1131890630B80912B01816080932B0180912C013B
S11318A0816080932C01B3E0EB2E52C08091400103
S11318B08F7780934001802F612F0E949D038F15A5
S11318C008F4F82EF894F092230110933801009351
S11318D017017894802F612F4F2D0E944C03898328
S11318E08F2D0E9471028A83812F0E9471028B8343
S11318F0802F0E9471028C8380ED63E044E09E019E
S11319002F5F3F4F0E9404118091170160913801AD
S113191040912301209115010E94B803882321F0EE
S113192080914001816003C0809140018E7F80934B
S11319304001802F612F4F2D0E94630B8CED95E0A9
S11319400E94A701809140018068809340015DC09E
S1131950C2FE2ECF809135018B7F8093350181E0CB
S1131960E81671F41F5F1D3008F011E0802F612F1D
S11319704F2D0E94630B80911401882309F515C033
S113198082E0E81641F5F394802F612F0E949D03B5
S11319908F1510F4FF24F394802F612F4F2D0E9494
S11319A0630B80911401813059F480912501816089
S11319B08093250180912601816080932601F8CED1
S11319C080912801816080932801809129018160A0
S11319D080932901EDCE83E0E81609F0E9CE802F4B
S11319E08F5F6D2D0E94B714092F892F612F4F2D02
S11319F00E94630B80912B01816080932B01809165
S1131A002C01816080932C01D3CE809139018B7F8E
S1131A10809339010F900F900F900F90DF91CF9129
S1131A201F910F91FF90EF90DF90CF90BF90AF90F8
S1131A300895CF93DF93CDB7DEB72B970FB6F89405
S1131A40DEBF0FBECDBF0E945E058091170160917D
S1131A503801409123010E944C03682F70E0660F07
S1131A60771F61507F4FCE01019642E050E00E9403
S1131A700C1569817A81CE0103960E941515CE0159
S1131A8003960E94AC082B960FB6F894DEBF0FBEE7
S1131A90CDBFDF91CF910895AF92BF92CF92DF92E5
S1131AA0EF92FF920F931F93CF93DF93CDB7DEB7DF
S1131AB02A970FB6F894DEBF0FBECDBF86EC92E036
S1131AC00E94180685E090E090933B0180933A01D0
S1131AD080ED60E10E943F11182F809139018560EB
S1131AE08093390120E0E5E0AE2EB12C7E0108940C
S1131AF0E11CF11CF2E6CF2EF1E0DF2EA895009157
S1131B0035018091350190E087709070009729F03D
S1131B10B0923B01A0923A0106C080913A019091A3
S1131B203B01009789F100FF35C02B3069F58091A6
S1131B3035018E7F8093350111501D390CF413E665
S1131B4000D000D000D0EDB7FEB73196ADB7BEB728
S1131B501296FC92EE921197D382C282812F99271A
S1131B6087FD9095958384832A870E941C158DB7E1
S1131B709EB706960FB6F8949EBF0FBE8DBFC701E1
S1131B800E94AC082A8506C0809140018068809339
S1131B90400169C001FF35C0809135018D7F80937C
S1131BA03501222319F500D000D000D0EDB7FEB7DF
S1131BB03196ADB7BEB71296FC92EE921197D382CE
S1131BC0C282812F992787FD9095958384830E94F3
S1131BD01C158DB79EB706960FB6F8949EBF0FBE20
S1131BE08DBFC7010E94AC082BE00BC0809140015F
S1131BF080688093400180ED60E1412F0E94D31002
S1131C0032C002FF7BCF809135018B7F80933501F9
S1131C102B3009F073CF1F5F14360CF01DE900D090
S1131C2000D000D0EDB7FEB73196ADB7BEB712966F
S1131C30FC92EE921197D382C282812F992787FD5D
S1131C409095958384832A870E941C158DB79EB72F
S1131C5006960FB6F8949EBF0FBE8DBFC7010E94B3
S1131C60AC082A854BCF809139018A7F8093390152
S1131C702A960FB6F894DEBF0FBECDBFDF91CF9189
S1131C801F910F91FF90EF90DF90CF90BF90AF9096
S1131C900895AF92BF92CF92DF92EF92FF920F938B
S1131CA01F93CF93DF93CDB7DEB729970FB6F89480
S1131CB0DEBF0FBECDBF8CEA92E00E94180685E01D
S1131CC090E090933B0180933A0189E090E00E9478
S1131CD01C1780933F0110E0A5E0AA2EB12C7E01D1
S1131CE00894E11CF11CBEE9CB2EB1E0DB2E01C04F
S1131CF010E0A895009135018091350190E087703E
S1131D009070009729F0B0923B01A0923A0109C06B
S1131D1080913A0190913B01009719F48091400120
S1131D2035C000FD91C001FF47C0809135018D7F12
S1131D308093350180914001112341F585FD20C038
S1131D4000D000D000D0EDB7FEB73196ADB7BEB726
S1131D501296FC92EE921197D382C28280913F0137
S1131D60848315820E941C158DB79EB706960FB604
S1131D70F8949EBF0FBE8DBFC7010E94AC0804C07B
S1131D8085E991E00E94180611E016C080688093EE
S1131D90400189E090E060913F010E942417609126
S1131DA0400160728EE090E00E94241780917A00D6
S1131DB0877780937A0048C002FF9BCF80913501DA
S1131DC08B7F80933501113009F092CF80914001CF
S1131DD085FD04C080913F018A3560F58091400102
S1131DE08F7D8093400180913F018B5F0E9483022D
S1131DF080933F018093370100D000D000D0EDB72D
S1131E00FEB73196ADB7BEB71296FC92EE9211971B
S1131E10D382C282848315820E941C158DB79EB71B
S1131E2006960FB6F8949EBF0FBE8DBFC7010E94E1
S1131E30AC085FCF8091400180628093400185E9C6
S1131E4091E00E94180655CF29960FB6F894DEBF8C
S1131E500FBECDBFDF91CF911F910F91FF90EF90F7
S1131E60DF90CF90BF90AF90089581E58CBD089529
S1131E708EBD0DB407FEFDCF08958F929F92AF9251
S1131E80BF92CF92DF92EF92FF920F931F93E82FAE
S1131E90F0E0E054FE4FE49121E030E002C0220F74
S1131EA0331FEA95E2F76901EE24D7FCE094FE2C97
S1131EB080E090E0A62FB0E011E0812E912CA12CBF
S1131EC0B12C9D01082E02C0359527950A94E2F79E
S1131ED020FF11C0FC01EA54FE4F44919501840196
S1131EE004C0000F111F221F331F4A95D2F7C02AC6
S1131EF0D12AE22AF32A01968830910511F7F89441
S1131F008E2D0E94380F8D2D0E94380F8C2D0E942B
S1131F10380F409A409878941F910F91FF90EF905A
S1131F20DF90CF90BF90AF909F908F90089578945A
S1131F301F920F920FB60F921124CF92DF92EF925D
S1131F40FF920F931F932F933F934F935F936F933E
S1131F507F938F939F93AF93BF93CF93DF93EF932D
S1131F60FF93809136018F5F809336018F3108F49F
S1131F7099C08091370187BD10923601809110017C
S1131F809091110101969093110180931001809119
S1131F903401882349F180913D0190913E010097DD
S1131FA019F58091120190911301019690931301F8
S1131FB08093120121E08D329207B0F01092130148
S1131FC01092120140913401407880EA9FE068E564
S1131FD072E00E94E7028091340187FD05C0809180
S1131FE034018C5F8093340100E010E0C9E1D1E05A
S1131FF088EEC82E83E0D82E91E0E92EF12C2881BA
S113200039812115310509F446C029313105E0F043
S11320102931310551F420913501C701002E02C048
S1132020880F991F0A94E2F721C08091390190E04A
S1132030002E02C0959587950A94E2F780FF2BC085
S113204083E0283E380728F42F5F3F4F39832883E5
S113205022C083E0283E3807A1F420913501C7014E
S1132060002E02C0880F991F0A94E2F7282B2093B0
S113207035010E942603888199810196998388837A
S11320800AC02F5F3F4F3983288384E0203B380701
S113209010F0D982C88222960F5F1F4F05301105B8
S11320A009F0ADCF809141018F5F80934101909100
S11320B01601E92FF0E0E555FE4FE4918E17E0F1AB
S11320C0109241019F5F90931601993060F1109234
S11320D016018091400187FF26C080913D019091B7
S11320E03E010097A9F08091300190913101019651
S11320F0909331018093300183339105A0F01092C5
S11321003101109230018091240192E0892709C0A5
S1132110909140018091240196FF02C0826001C029
S11321208D7F8093240180911601E82FF0E0EC5D0F
S1132130FE4F60810E943D0FFF91EF91DF91CF919F
S1132140BF91AF919F918F917F916F915F914F91CB
S11321503F912F911F910F91FF90EF90DF90CF90BF
S11321600F900FBE0F901F90189584EA8093BC00C7
S11321708091BC0087FFFCCF9091B900987F983084
S113218029F081E0903119F480E0089580E0089509
S11321908093BB0084E88093BC008091BC0087FFDF
S11321A0FCCF089508951F93CF93DF93C82FD62FA4
S11321B0142F0E94B5108823F9F48C2F8E7F0E946F
S11321C0C8108091B900883171F48D2F0E94C81015
S11321D08091B900883239F4812F0E94C81080910F
S11321E0B900883219F08091B90006C084E980935F
S11321F0BC0080E090E004C01092BC008FEF9FEF21
S1132200DF91CF911F910895FF920F931F93CF9366
S1132210DF93182F062FF42EE9010E94B5108823AE
S113222021F5812F8E7F0E94C8108091B9008831DA
S113223079F4802F0E94C8108091B900883269F027
S113224007C088810E94C8108091B900883219F0B3
S11322508091B9000AC02196FA94FF2091F784E98D
S11322608093BC0080E090E004C01092BC008FEF2B
S11322709FEFDF91CF911F910F91FF900895CF931E
S1132280DF93C82FD62F0E94B510882381F58C2F99
S11322908E7F0E94C8108091B9008831F1F48D2F8F
S11322A00E94C8108091B9008832B9F40E94B51018
S11322B08823E9F48C2F81600E94C8108091B900B2
S11322C0803459F484E88093BC008091BC0087FF7B
S11322D0FCCF8091B900883519F08091B90007C00E
S11322E08091BB0094E99093BC0090E004C01092EC
S11322F0BC008FEF9FEFDF91CF910895FF920F9372
S11323001F93CF93DF93182F062FF42EE9010E9419
S1132310B510882309F046C0812F8E7F0E94C81013
S11323208091B900883161F5802F0E94C810809196
S1132330B900883229F50E94B510882399F5812FB8
S113234081600E94C8108091B900803409F118C0DE
S113235021E0F21659F48093BC002091BC0027FFC1
S1132360FCCF2091B900283571F00AC09093BC00CD
S11323702091BC0027FFFCCF2091B900203519F033
S11323808091B9000FC02091BB002993FA9402C038
S113239094EC84E8FF20E1F684E98093BC0080E0BB
S11323A090E004C01092BC008FEF9FEFDF91CF91BB
S11323B01F910F91FF9008951092B90080E28093CD
S11323C0B800089505C081509EE100009150E9F7DE
S11323D08823C9F708950AC02FE33DE043E0215064
S11323E030404040E1F700C0000081508823A1F74D
S11323F008959093C5008093C40088E18093C10040
S11324008EE08093C200519A509808959091C00034
S113241095FFFCCF8093C60080E090E00895809102
S1132420C00087FFFCCF8091C60008958091C00052
S113243080780895EF92FF921F93CF93DF930F92CA
S1132440CDB7DEB77C0110E005C069830E94061297
S11324501F5F6981F701E10FF11D84918823A9F7BA
S1132460662331F08AE00E9406128DE00E94061273
S11324700F90DF91CF911F91FF90EF900895CF932C
S1132480DF93EC0102C00E94061289918823D9F7D8
S1132490DF91CF910895CF93DF93EC01FE01219654
S11324A08491882319F00E940612F8CFDF91CF910E
S11324B00895CF93C82F82958F708A3010F4805D71
S11324C001C0895A0E9406122C2F30E02F70307000
S11324D08C2F8F702A30310514F4805D01C0895A25
S11324E00E940612CF910895CF93C82F892F0E947E
S11324F059128C2F0E945912CF910895CF92DF92D6
S1132500EF92FF926B017C01C7010E947412C60115
S11325100E947412FF90EF90DF90CF900895BF92C5
S1132520CF92DF92EF92FF920F931F93CF93DF939B
S11325308C0125E0E22EF12C20E0C0E1D7E23AE064
S1132540C32ED12CC801BE010E94C314B62E66232B
S113255029F4222319F4C130D10529F48B2D805D8F
S11325600E94061221E06B2D70E06C9FC0016D9FEC
S1132570900D7C9F900D1124081B190BCE01B60100
S11325800E94C314EB010894E108F108E114F1047A
S1132590C9F6DF91CF911F910F91FF90EF90DF90DB
S11325A0CF90BF9008954F925F926F927F928F92D7
S11325B09F92AF92BF92CF92DF92EF92FF920F93CE
S11325C01F93CF93DF934B015C010AE010E0C0E05E
S11325D0C12C4AECD42E4AE9E42E4BE3F42E5AE003
S11325E0452E512C612C712CC501B401A701960113
S11325F00E94EA14D22F222341F4CC2331F481E047
S1132600C816D104E104F10429F48D2F805D0E94E1
S11326100612C1E06D2F70E080E090E0A701960102
S11326200E949814DC01CB01881A990AAA0ABB0AF1
S1132630C701B601A30192010E94EA1469017A015B
S11326400150104089F6DF91CF911F910F91FF90B7
S1132650EF90DF90CF90BF90AF909F908F907F903E
S11326606F905F904F90089515BC569A5E981092A3
S1132670600088E10FB6F8948093600010926000C7
S11326800FBE8091600080628093600088E0809338
S113269060002FE088E190E00FB6F894A89580934D
S11326A060000FBE20936000A8950E94B8025B985A
S11326B08AE092E061E00E941A128DE192E061E00A
S11326C00E941A1281E0809369008DBB80914001C1
S11326D080688093400180E392E061E00E941A12D6
S11326E081E58CBD89E392E061E00E941A120E94A8
S11326F02E038BE090E00E941C178093140184E465
S113270092E061E00E941A120E94CB0281E592E0FD
S113271061E00E941A120E9492020E9404047894BA
S11327208CE592E061E00E941A120E94A5024A9B85
S113273004C080914001806403C0809140018F7B7C
S11327408093400187E692E061E00E941A1281E7DB
S113275092E00E94180688EE93E00E94A70189EC9B
S113276091E00E94180680EA9FE060ED77E040E087
S11327700E94E70280912D0190912E010097D1F7DC
S1132780C0E008E110E0D4E0A8958091350183FF12
S113279008C080913501877F8093350181E00E94D4
S11327A0D0098091350184FF08C0809135018F7E66
S11327B08093350180E00E94D0098091400187FF19
S11327C03FC08091400184FF3BC02091150180915E
S11327D0400190E081709070820F911DB8010E94B9
S11327E0D714F82E8091400181FF07C080913C01ED
S11327F080FF03C00E945E0507C060912F014091D5
S11328003C018F2D0E946B058091400182FF06C020
S113281080913401882311F40E94260382E0F81683
S113282051F480912F018E3131F480913C01882341
S113283011F40E940404809140018F7E8093400132
S11328408091400187FF12C080913401882371F088
S11328508091350190E087709070009739F08091F5
S11328603501887F809335010E948E08809135015F
S113287080FF2BC0809135018E7F8093350180913C
S1132880400187FF06C0809140018F77809340010B
S1132890C0E0EC2FF0E0EE0FFF1FE050FF4FCF5FE2
S11328A085919491FC010995EC2FF0E0EE0FFF1F48
S11328B0E050FF4F85919491009709F065CF809186
S11328C035018E7F8093350120C08091350182FFD0
S11328D020C0809135018B7F809335018091400128
S11328E08F77809340010E94190D8CED95E00E9432
S11328F0A7010E94F90A8CED95E00E94A7010E94AD
S1132900D8088CED95E00E94A70180914001806871
S11329100CC08091350181FF37CF809135018D7FC7
S113292080933501809140018D27809340012CCF05
S1132930629FD001739FF001829FE00DF11D649F9F
S1132940E00DF11D929FF00D839FF00D749FF00D2B
S1132950659FF00D9927729FB00DE11DF91F639FCC
S1132960B00DE11DF91FBD01CF0111240895991B7C
S113297079E004C0991F961708F0961B881F7A9572
S1132980C9F780950895AA1BBB1B51E107C0AA1F74
S1132990BB1FA617B70710F0A61BB70B881F991FFC
S11329A05A95A9F780959095BC01CD01089597FBA0
S11329B0092E07260AD077FD04D0E5DF06D00020D3
S11329C01AF4709561957F4F0895F6F79095819567
S11329D09F4F0895A1E21A2EAA1BBB1BFD010DC037
S11329E0AA1FBB1FEE1FFF1FA217B307E407F507BB
S11329F020F0A21BB30BE40BF50B661F771F881F97
S1132A00991F1A9469F760957095809590959B012C
S1132A10AC01BD01CF010895FB01DC0102C00590AA
S1132A200D9241505040D8F70895FB01DC01059008
S1132A300D920020E1F70895AEE0B0E0E2E2F5E1A6
S1132A400C94E0170D891E898EE08C831A83098308
S1132A508FEF9FE79E838D83AE01475E5F4FCE016C
S1132A6001966F89788D0E943E15EF81F885E00FFD
S1132A70F11F10822E96E4E00C94FC17ADE0B0E058
S1132A80E4E4F5E10C94D2173C017D876C875A018C
S1132A90FC0117821682838181FFC8C12E0108942C
S1132AA0411C511CF3019381EC85FD8593FD8591B7
S1132AB093FF8191FD87EC87882309F4B3C18532A4
S1132AC041F493FD859193FF8191FD87EC878532D5
S1132AD029F490E0B3010E944817E4CFFF24EE24C8
S1132AE010E01032B0F48B3269F08C3228F480326A
S1132AF051F0833271F40BC08D3239F0803349F4D4
S1132B0011602CC01260146029C0186027C01061C5
S1132B1025C017FD2EC0282F20532A3098F416FF05
S1132B2008C08F2D880FF82EFF0CFF0CF80EF20E44
S1132B3015C08E2D880FE82EEE0CEE0CE80EE20E7A
S1132B4010620CC08E3221F416FD6CC1106406C0F4
S1132B508C3611F4106802C0883659F4EC85FD8572
S1132B6093FD859193FF8191FD87EC87882309F07C
S1132B70B8CF982F9554933018F09052933038F47E
S1132B8024E030E0A20EB31E3FE339830FC0833646
S1132B9031F0833781F0833509F05AC022C0F50142
S1132BA08081898322E030E0A20EB31E21E0C22E90
S1132BB0D12C420114C092E0292E312C2A0C3B1C4A
S1132BC0F5018080918016FF03C06F2D70E002C074
S1132BD06FEF7FEFC4010E943D176C0151011F7715
S1132BE015C082E0282E312C2A0C3B1CF501808074
S1132BF0918016FF03C06F2D70E002C06FEF7FEF6E
S1132C00C4010E9432176C011068510113FD1CC0ED
S1132C1006C080E290E0B3010E944817EA948E2D2A
S1132C2090E0C816D906A8F30FC0F40117FD8591EA
S1132C3017FF81914F0190E0B3010E944817E11002
S1132C40EA940894C108D108C114D10471F7E7C00B
S1132C50843611F0893651F5F50117FF07C08081DC
S1132C609181A281B38124E030E008C08081918108
S1132C70AA2797FDA095BA2F22E030E0A20EB31E3A
S1132C80012F0F76B7FF08C0B095A0959095819558
S1132C909F4FAF4FBF4F0068BC01CD01A2012AE096
S1132CA030E00E947417D82ED4183FC0853721F421
S1132CB01F7E2AE030E020C0197F8F36A9F08037CC
S1132CC020F4883509F0AEC00BC0803721F0883776
S1132CD009F0A8C001C0106114FF09C0146007C046
S1132CE014FF08C0166006C028E030E005C020E1EB
S1132CF030E002C020E132E0F50117FF07C0608137
S1132D0071818281938144E050E006C060817181C9
S1132D1080E090E042E050E0A40EB51EA2010E94C3
S1132D207417D82ED418012F0F7706FF09C00E7F11
S1132D30DF1430F404FF06C002FD04C00F7E02C09D
S1132D401D2D01C01F2D802F90E004FF0CC0FE013B
S1132D50ED0DF11D2081203311F4097E09C002FF1D
S1132D6006C01E5F05C086789070009709F01F5F4B
S1132D70802E992403FD12C000FF0DC0FD2C1E15EA
S1132D8050F4FE0CF11A1E2D06C080E290E0B3014F
S1132D900E9448171F5F1E15C0F304C01E1510F4CF
S1132DA0E11A01C0EE2484FE0FC080E390E0B30179
S1132DB00E94481782FE1FC081FE03C088E590E090
S1132DC010C088E790E00DC0C40186789070009729
S1132DD091F081FC02C080E201C08BE207FD8DE22C
S1132DE090E0B3010E94481706C080E390E0B3016D
S1132DF00E944817FA94DF14C0F3DA94F201ED0D3F
S1132E00F11D808190E0B3010E944817DD20A9F7ED
S1132E1006C080E290E0B3010E944817EA94EE20D5
S1132E20C1F740CEF3018681978102C08FEF9FEFF7
S1132E302D96E2E10C94EE17F999FECF92BD81BD77
S1132E40F89A992780B50895262FF999FECF1FBACD
S1132E5092BD81BD20BD0FB6F894FA9AF99A0FBEBF
S1132E6001960895FC010590615070400110D8F757
S1132E70809590958E0F9F1F0895FC0161507040BE
S1132E8001900110D8F7809590958E0F9F1F08959B
S1132E900F931F93CF93DF938C01EB018B8181FF01
S1132EA01BC082FF0DC02E813F818C819D8128171C
S1132EB0390764F4E881F9810193F983E88306C052
S1132EC0E885F985802F0995009731F48E819F81DB
S1132ED001969F838E8302C00FEF1FEFC801DF911D
S1132EE0CF911F910F910895FA01AA27283051F12B
S1132EF0203181F1E8946F936E7F6E5F7F4F8F4F27
S1132F009F4FAF4FB1E03ED0B4E03CD0670F781F85
S1132F10891F9A1FA11D680F791F8A1F911DA11D6A
S1132F206A0F711D811D911DA11D20D009F46894A3
S1132F303F912AE0269F11243019305D3193DEF64B
S1132F40CF010895462F4770405D4193B3E00FD001
S1132F50C9F7F6CF462F4F70405D4A3318F0495DEC
S1132F6031FD4052419302D0A9F7EACFB4E0A695CF
S1132F709795879577956795BA95C9F700976105F1
S1132F80710508959B01AC010A2E06945795479547
S1132F9037952795BA95C9F7620F731F841F951F3C
S1132FA0A01D08952F923F924F925F926F927F924D
S1132FB08F929F92AF92BF92CF92DF92EF92FF9245
S1132FC00F931F93CF93DF93CDB7DEB7CA1BDB0BF1
S1132FD00FB6F894DEBF0FBECDBF09942A88398896
S1132FE048885F846E847D848C849B84AA84B9849D
S1132FF0C884DF80EE80FD800C811B81AA81B981A9
S1133000CE0FD11D0FB6F894DEBF0FBECDBFED01BC
S10930100895F894FFCFBF
S11330161D0A3E07AF0B490E4806CD064C0D0000AF
S9030000FC
