:100000000C94AB000C94BD140C94C8000C945A10C2
:100010000C94C8000C94B3100C94C8000C94C80045
:100020000C94C8000C941A0D0C94C8000C94C800D1
:100030000C94C8000C94C8000C94C8000C94C80020
:100040000C944C0A0C94C8000C94C8000C94C80082
:100050000C94C8000C94AC020C94C8000C94A90F2A
:100060000C94C8000C94C800FA3E1A7ADE8EF62E64
:100070006078AE1CAA2A3ACEF30AB61E3838B86E9B
:1000800076DA6800FC60DAF266B6BEE0FEF684005E
:1000900003070809060A050C0490000B10120F0D47
:1000A0000E11139B00616C61726D206F6E210061F7
:1000B0006C61726D206F66660053657420646179AF
:1000C00000646F6E6500616C61726D20696E6974A9
:1000D00000636C6F636B20696E6974007370656197
:1000E0006B657220696E697400626F6F737420694A
:1000F0006E69740076666420696E69740074757246
:100100006E696E67206F6E20616C61726D7377002F
:100110007475726E696E67206F6E20627574746F8D
:100120006E7300636C6F636B20696E6974002100ED
:1001300077616B6574696D650057414B4552455356
:100140004554007A00623200623300623100736EFF
:100150006F6F7A65000011241FBECFEFD4E0DEBFC1
:10016000CDBF12E0A0E0B1E0E0E3FEE202C0059006
:100170000D92A634B107D9F712E0A6E4B2E001C0AF
:100180001D92A73FB107E1F70E944D130C9416177B
:100190000C9400009C017894109257021092560221
:1001A000809156029091570282179307C8F30895E1
:1001B000A895089581E0809349025B9A8CB58F7B66
:1001C0008CBD85B1877D85B95E9815BC1092E4021F
:1001D00010926800459885B1897F85B98BB18F7C75
:1001E0008BB928988AB18F7C8AB920985A985298EE
:1001F000E1E6F0E090E8908388E08083449A83B75A
:10020000876083BF889590831082449808958EE21A
:1002100084B988E48AB989E087B984E38BB991E02D
:1002200095B985E08093680090936B0080E380939C
:100230006D0008959C010097A9F4E8E6F0E0849130
:1002400081608093ED027496E491E160E093EE02A8
:100250008091F202882341F580917A008064809336
:100260007A0008956AE070E00E94C616FB01EC5720
:10027000FF4FE491E160E093ED02C9016AE070E0B4
:100280000E94C616FC01EC57FF4FE491E160E09339
:10029000EE02922F2B3510F09AE503C02E3108F4B0
:1002A0009EE187B5891397BD0895F999FECF84E043
:1002B00090E092BD81BDF89A80B568E10E949916E0
:1002C00090936102F999FECF85E090E092BD81BDE7
:1002D000F89A80B56CE30E9499169093EF02F99911
:1002E000FECF86E090E092BD81BDF89A80B56CE3C8
:1002F0000E9499169093F602F999FECF88E090E05B
:1003000092BD81BDF89A80B56CE30E9499169093D6
:10031000E302F999FECF87E090E092BD81BDF89AA3
:1003200080B568E10E9499169093F102F999FECF89
:1003300081E090E092BD81BDF89A80B564E60E94AC
:1003400099169093E202F999FECF82E090E092BD77
:1003500081BDF89A80B56DE00E9499169093F502E0
:10036000F999FECF83E090E092BD81BDF89A80B507
:100370008F718093E50291E090934B028091B600DB
:1003800080628093B60085E08093B1009093700006
:1003900078940895FC0183709070892B39F4CF0113
:1003A00064E670E00E94B216892B49F420E030E048
:1003B000CF0160E971E00E94B216892B11F421E0AF
:1003C00030E0822F0895F999FECF8AE090E092BD47
:1003D00081BDF89A80B58093E40285B1866085B9C5
:1003E00082E3809380008091E402882329F0809149
:1003F000800080688093800088E1809381008AEF8C
:1004000090E0909387008093860080918600909181
:1004100087009695879590938900809388008091B6
:1004200088009091890090938B0080938A000895B2
:100430001092800010928100299A2A987894109244
:1004400057021092560280915602909157020A97D5
:10045000D0F32A9A29987894109257021092560253
:1004600080915602909157020A97D0F385B1897F07
:1004700085B982EB8093800088E1809381000895A4
:100480001F93162F9C0140E050E060E472E48FE07F
:1004900090E00E94FB1630938700209386008091A5
:1004A0008600909187009695879590938B00809316
:1004B0008A0080918A0090918B00909389008093AC
:1004C000880028EC30E01CC080918100826080931D
:1004D000810080ED97E0F9013197F1F70197D9F7A5
:1004E000809181008D7F8093810085B1897F85B95E
:1004F00080ED97E0F9013197F1F70197D9F71150A5
:10050000112311F785B1897F85B91F9108953D9A0F
:10051000459AAAE7B0E08C9186608C93ECE7F0E016
:10052000808180648083808184608083EEE7F0E056
:100530008081806180838C9180688C938C918860AD
:100540008C9308958091F202882329F480917A0097
:10055000806480937A0008951F920F920FB60F92D5
:1005600011242F933F934F935F936F937F938F93B8
:100570009F93AF93BF93EF93FF938091F2028823F1
:10058000B9F53091780020917900922F80E0632FA7
:1005900070E0682B792B83E06F3F780718F08DE2CD
:1005A00090E01BC082E06935780718F48AE590E096
:1005B00014C06855724080E090E02DE230E040E0E9
:1005C00050E00E947A1627EA31E040E050E00E94B5
:1005D000D9168AE590E0821B930B982F8B3510F08B
:1005E0009AE503C08E3108F49EE187B5891397BD63
:1005F000FF91EF91BF91AF919F918F917F916F91FB
:100600005F914F913F912F910F900FBE0F901F90D0
:100610001895982F8B3510F09AE503C08E3108F4A9
:100620009EE187B5891397BD83E084BD81E085BDD8
:1006300084B5806884BD80916E00816080936E0077
:1006400078940895982F8B3510F09AE503C08E3179
:1006500008F49EE187B5891397BD08951F93182F5D
:10066000262F842F6AE00E949916E92FF0E0EC57BC
:10067000FF4FE491E093EE02842F0E949916E82F39
:10068000F0E0EC57FF4FE491E093ED0280914E02D1
:10069000833091F0843028F4813091F0823050F42E
:1006A00007C0853069F0853048F0863069F40AC0AB
:1006B00088E00BC080E409C080E807C084E005C082
:1006C00082E003C080E201C080E18093E902809370
:1006D000EC0280914E02873019F410924E0205C050
:1006E00080914E028F5F80934E02822F6AE00E94BB
:1006F0009916E92FF0E0EC57FF4FE491E093EB02FD
:10070000822F0E949916E82FF0E0EC57FF4FE491FA
:10071000E093EA0280914802882361F5812F90E0FE
:100720000B966CE070E00E94C6169C012F5F3F4F55
:10073000C9016AE070E00E94C616FC01EC57FF4F49
:10074000E491E093E802C9016AE070E00E94C616F5
:10075000FB01EC57FF4FE491E093E7021C3020F0DF
:100760008091E602816003C08091E6028E7F8093D3
:10077000E6021AC0812F68E10E949916292F892F5D
:100780006AE00E949916E92FF0E0EC57FF4FE491E0
:10079000E093E802822F0E949916E82FF0E0EC57D0
:1007A000FF4FE491E093E7021F910895BF92CF922B
:1007B000DF92EF92FF920F931F93CF93DF93E0901E
:1007C0006102F090EF020091F6028AE080935C02F1
:1007D00010E05AE0B52E45E0C42ED12CC4E0D0E0A4
:1007E0008091590280FDE5C080915902882321F44F
:1007F00080915A02882319F0B0925C0205C0809162
:100800005C02882309F44BC08091590281FF4AC0E1
:10081000109259021123B9F4E0906102F090EF02B6
:100820000091F6028E2D6F2D402F0E942E03809195
:10083000E70281608093E7028091E8028160809303
:10084000E80211E02FC0113089F48E2D6F2D402F5A
:100850000E942E038091EA0281608093EA028091D7
:10086000EB0281608093EB0212E01CC0123089F42D
:100870008E2D6F2D402F0E942E038091ED028160FE
:100880008093ED028091EE0281608093EE0213E08E
:1008900009C0E0926102F092EF020093F60210921A
:1008A000F40287C08091590282FD04C080915A02EF
:1008B00082FF96CF10925902113031F58E2D90E0C3
:1008C000019668E170E00E94C616E82E6F2D402F59
:1008D0000E942E038091E70281608093E70280915D
:1008E000E80281608093E802E092610280916102F7
:1008F000F999FECF1FBAD2BDC1BD80BD0FB6F89425
:10090000FA9AF99A0FBE44C0123039F58F2D90E053
:1009100001966CE370E00E94C616F82E8E2D6F2DA6
:10092000402F0E942E038091EA0281608093EA02A8
:100930008091EB0281608093EB028091EF02F99944
:10094000FECF1FBAD2BCC1BC80BD0FB6F894FA9AD4
:10095000F99A0FBEF092EF021BC01330C9F4802F3A
:1009600090E001966CE370E00E94C616082F8E2D71
:100970006F2D402F0E942E038091ED0281608093A5
:10098000ED028091EE0281608093EE020093F60208
:1009900080915A0282FF24CF7894109257021092CD
:1009A000560280915602909157028B349105C8F3FC
:1009B00017CFDF91CF911F910F91FF90EF90DF90B4
:1009C000CF90BF900895382F262F1092EE021092EC
:1009D000ED021092EC02862F6AE00E949916E92F30
:1009E000F0E0EC57FF4FE491E093EB02822F0E947E
:1009F0009916E82FF0E0EC57FF4FE491E093EA02FC
:100A00001092E90280914802882309F03BC03C30F3
:100A100058F08091E60281608093E602E7E7F0E01B
:100A2000E491E093ED020AC0E8E6F0E0E491E0939F
:100A3000ED028091E6028E7F8093E602E4E7F0E02B
:100A4000E491E093EE02832F90E00B966CE070E06F
:100A50000E94C6169C012F5F3F4FC9016AE070E0FB
:100A60000E94C616FC01EC57FF4FE491E093E802A8
:100A7000C9016AE070E00E94C616FB01EC57FF4F07
:100A8000E4911EC0832F90E0479668E170E00E94D9
:100A9000C6169C012F5F3F4FC9016AE070E00E94BB
:100AA000C616FC01EC57FF4FE491E093E802C90140
:100AB0006AE070E00E94C616FB01EC57FF4FE4911C
:100AC000E093E7020895EF92FF920F931F93109126
:100AD000F1020091E3028AE080935C02FF247AE055
:100AE000E72E8091590280FDD3C08091590288235E
:100AF00021F480915A02882319F0E0925C0229C007
:100B000080915C02882329F51092F4021093F1027F
:100B10000093E3022091F102F999FECF1FBA87E01A
:100B200090E092BD81BD20BD0FB6F894FA9AF99A73
:100B30000FBE2091E302F999FECF1FBA88E090E042
:100B400092BD81BD20BD0FB6F894FA9AF99A0FBEF6
:100B50009FC08091590281FF4EC010925902FF2020
:100B600089F4812F602F0E94E3048091E702816065
:100B70008093E7028091E80281608093E802FF247D
:100B8000F39439C081E0F81689F4812F602F0E9418
:100B9000E3048091EA0281608093EA028091EB0293
:100BA00081608093EB0262E0F62E25C01093F10283
:100BB0000093E3022091F102F999FECF1FBA87E07A
:100BC00090E092BD81BD20BD0FB6F894FA9AF99AD3
:100BD0000FBE2091E302F999FECF1FBA88E090E0A2
:100BE00092BD81BD20BD0FB6F894FA9AF99A0FBE56
:100BF0001092F4024DC08091590282FD04C0809190
:100C00005A0282FF6ECF1092590281E0F816B1F4B9
:100C1000812F90E0019668E170E00E94C616182FBF
:100C2000602F0E94E3048091E70281608093E702D5
:100C30008091E80281608093E80219C082E0F81692
:100C4000B1F4802F90E001966CE370E00E94C6162C
:100C5000082F812F602F0E94E3048091EA028160B7
:100C60008093EA028091EB0281608093EB02809195
:100C70005A0282FF36CF7894109257021092560291
:100C800080915602909157028B349105C8F329CF79
:100C90001F910F91FF90EF900895482F262FEAE6BD
:100CA000F0E084918093EE02719684918093ED023E
:100CB0003196E491E093EC02862F6AE00E94991647
:100CC000E92FF0E0EC57FF4FE491E093EB02822F25
:100CD0000E949916E82FF0E0EC57FF4FE491E09363
:100CE000EA021092E902242F332727FD309537FFBF
:100CF00003C0309521953F4FC9016AE070E00E9422
:100D0000C616FC01EC57FF4FE491E093E802C901DD
:100D10006AE070E00E94C616FB01EC57FF4FE491B9
:100D2000E093E70247FD04C08091E6028D7F03C097
:100D30008091E60282608093E6020895CF93DF936C
:100D40001092E602EC01A7EEB2E0E881EE23D1F0CA
:100D50008E2F81568A3128F4F0E0E95FFF4FE4914D
:100D600008C08E2F80538A3030F4F0E0EC5AFF4FE9
:100D7000E491EC9301C01C922196119682E0AF3E63
:100D8000B80719F7DF91CF910895CF93DF938823A8
:100D900009F096C01092E60282E08093E902809307
:100DA000EC0280914802882309F037C08091F50257
:100DB0006AE00E94A516E82FFF27E7FDF095EC57A3
:100DC000FF4FE491E093E7028091F5026AE00E9410
:100DD000A516E92FFF27E7FDF095EC57FF4FE491AB
:100DE000E093E8028091E5026AE00E94A516E82FF0
:100DF000FF27E7FDF095EC57FF4FE491E093EA02FF
:100E00008091E5026AE00E94A516E92FFF27E7FD21
:100E1000F095EC57FF4FE49136C08091E5026AE00F
:100E20000E94A516E82FFF27E7FDF095EC57FF4F2E
:100E3000E491E093E7028091E5026AE00E94A51642
:100E4000E92FFF27E7FDF095EC57FF4FE491E09382
:100E5000E8028091F5026AE00E94A516E82FFF27BC
:100E6000E7FDF095EC57FF4FE491E093EA028091A3
:100E7000F5026AE00E94A516E92FFF27E7FDF0952D
:100E8000EC57FF4FE491E093EB028091E2026AE0BD
:100E90000E94A516E82FFF27E7FDF095EC57FF4FBE
:100EA000E491E093ED028091E2026AE00E94A516CF
:100EB000E92FFF27E7FDF095EC57FF4FE491EEC0D7
:100EC000813009F0EDC08091F502C82FDD27C7FD04
:100ED000D0958091E202E82FFF27E7FDF095E053DF
:100EE000F84F8091F502833014F42C9631972091BD
:100EF000E5021092ED021092EE02332727FD3095A5
:100F00002F5F3F4F2E0F3F1FCE01880F991F280FD5
:100F1000391FCF019695879596958795280F391F8C
:100F2000CF0160E971E00E94B216260F371FCF0192
:100F300064E670E00E94B216261B370BAE014F5FCD
:100F40005F4FCA01880F991F840F951F880F991F43
:100F50006AE070E00E94B216C901860F971F67E031
:100F600070E00E94B2168330B9F0843028F48130EA
:100F700069F0823070F407C08530A1F0853078F0D8
:100F80008630B9F412C080E091E011C087E091E0B2
:100F90000EC08EE091E00BC086E191E008C08FE1C9
:100FA00091E005C088E291E002C08FE291E00E94EA
:100FB0009E06789410925702109256028091560223
:100FC00090915702885E9340C8F31092EA02109203
:100FD000EB021092EC028091F502863079F18730B5
:100FE00074F4833011F184302CF48130C1F08230FC
:100FF000D9F518C08430E1F08530B1F51CC08930D6
:1010000031F18A302CF48730E1F0883069F51CC06A
:101010008B3019F18B30F4F08C3031F521C088E33E
:1010200091E020C08CE391E01DC080E491E01AC003
:1010300086E491E017C08CE491E014C080E591E073
:1010400011C085E591E00EC08AE591E00BC080E615
:1010500091E008C085E691E005C08BE691E002C012
:1010600081E791E00E949E068091E5026AE00E947D
:10107000A516E82FFF27E7FDF095EC57FF4FE49109
:10108000E093ED028091E5026AE00E94A516E92F47
:10109000FF27E7FDF095EC57FF4FE491E093EE0258
:1010A000DF91CF9108950F931F93CF93DF938AE041
:1010B00080935C02F999FECF8BE090E092BD81BDF8
:1010C000F89A80B58093480210E00AE0CBE0D0E0C7
:1010D00001C010E080915902882321F480915A02C6
:1010E000882319F000935C0204C080915C0288237D
:1010F000C9F08091590280FD3FC08091590281FF63
:1011000014C010925902112369F480914802882377
:1011100019F487E791E002C080E891E00E949E0602
:1011200011E003C01092F40227C08091590282FF9F
:10113000D1CF10925902113061F690E080914802AF
:10114000882309F491E090934802992319F487E7E2
:1011500091E002C080E891E00E949E0680914802E2
:10116000F999FECF1FBAD2BDC1BD80BD0FB6F894AC
:10117000FA9AF99A0FBEAECFDF91CF911F910F91DE
:101180000895EF92FF920F931F93CF93DF938AE01E
:1011900080935C02F999FECF8AE090E092BD81BD18
:1011A000F89AF0B400E01AE0E12ECAE0D0E001C005
:1011B00000E080915902882321F480915A0288230B
:1011C00019F0E0925C0204C080915C02882369F10E
:1011D0008091590280FD6CC08091590281FF28C026
:1011E00010925902002309F5FF2051F089E891E09F
:1011F0000E949E068091EB0281608093EB0204C006
:1012000082E991E00E949E068091EC0281608093C9
:10121000EC028091ED0281608093ED028091EE02FC
:1012200081608093EE0201E003C01092F40240C09E
:101230008091590282FFBDCF10925902013009F00E
:10124000B7CF10E0FF2009F411E0F12E112351F087
:1012500089E891E00E949E068091EB028160809374
:10126000EB0204C082E991E00E949E068091EC02AC
:1012700081608093EC028091ED0281608093ED02A9
:101280008091EE0281608093EE02F999FECF1FBA41
:10129000D2BDC1BD10BD0FB6F894FA9AF99A0FBE2F
:1012A0000E94E30180EA9FE061E00E94400281CF5A
:1012B000DF91CF911F910F91FF90EF900895FF92D2
:1012C0000F931F938AE080935C0210E00AE0F02EF7
:1012D0000EE101C010E080915902882321F4809131
:1012E0005A02882319F0F0925C020BC080915C02D4
:1012F000882339F41092F4022091F202F999FECF7A
:101300001DC08091590280FD4AC08091590281FF21
:1013100021C010925902112359F48BE991E00E94E7
:101320009E068091F20290E00E941A0111E012C024
:101330001092F4022091F202F999FECF1FBA89E0CF
:1013400090E092BD81BD20BD0FB6F894FA9AF99A4B
:101350000FBE25C08091590282FD04C080915A02BF
:1013600082FFB9CF10925902113009F0B3CF8091AA
:10137000F202882319F40093F2020BC08091F2026A
:101380008B5F8093F2028091F2028B3510F0109205
:10139000F2028091F20290E00E941A019CCF1F910C
:1013A0000F91FF90089581E58CBD08959B01AC01DC
:1013B000F894CA01AA27BB278EBD0DB407FEFDCF46
:1013C000BB27A52F942F832F8EBD0DB407FEFDCF15
:1013D0002EBD0DB407FEFDCF409A40987894089535
:1013E000AF92BF92CF92DF92EF92FF920F931F9333
:1013F000E82FF0E0E057FF4FE49181E090E002C079
:10140000880F991FEA95E2F77C010027F7FC009509
:10141000102F20915D0230915E0240915F02509149
:101420006002A0E0B0E070E0E1E0AE2EB12CC12C93
:10143000D12CCB010A2E02C0959587950A94E2F72C
:1014400080FF11C0FD01E556FF4FE491A601950113
:1014500004C0220F331F441F551FEA95D2F7E22A1A
:10146000F32A042B152B1196A830B10511F7209300
:101470005D0230935E0240935F0250936002C801A8
:10148000B7010E94D6091F910F91FF90EF90DF9056
:10149000CF90BF90AF9008951F920F920FB60F920A
:1014A00011242F933F934F935F936F937F938F9369
:1014B0009F93AF93BF93EF93FF937894A8958091F8
:1014C00050029091510201969093510280935002E4
:1014D000819708F46CC010925102109250028091D2
:1014E00056029091570201969093570280935602AC
:1014F00080914F02893010F010924F0280914F027C
:10150000E82FF0E0EA51FD4F60810E94F0098091E0
:101510004F028F5F80934F028091F302882309F47A
:1015200046C08091540290915502892B09F03FC02A
:1015300080915202909153020196909353028093AE
:1015400052028536910598F1109253021092520280
:101550008AEF90E0909387008093860080918600C8
:10156000909187009695879590938B0080938A0041
:1015700080918A0090918B009093890080938800DD
:101580008091F302807F49F08091F3028F70809305
:10159000F302809181008D7F08C08091F302806FFB
:1015A0008093F30280918100826080938100FF919B
:1015B000EF91BF91AF919F918F917F916F915F91CB
:1015C0004F913F912F910F900FBE0F901F90189544
:1015D0008EBD0DB407FEFDCF08958091C0008078C8
:1015E0000895FC015381505182814AE0849FC001DB
:1015F0001124580F7481658130914402232F2051AA
:101600008181280F8081849FC0011124280F20939D
:10161000610280914D0237FF02C0581B01C0580F74
:101620005093EF0260518AE0789FC0011124680F47
:101630006093F6028091F6028F5F8093F6028091AC
:10164000F6028C330CF18091F6028C538093F602F3
:101650008091EF028F5F8093EF028091EF028C33D5
:101660009CF08091EF028C538093EF028091610295
:101670008F5F809361028091610288312CF08091AC
:1016800061028851809361020895FC01518150519B
:1016900080814AE0849FC0011124580F338130516A
:1016A0008281849FC0011124380F258120518481BB
:1016B000849FC0011124280F10924A0210924B02FD
:1016C0005093E5023093F5022093E2020895809151
:1016D000F6028C3354F08091F6028C538093F6021C
:1016E0008091EF028F5F8093EF028091F60287FF77
:1016F0000AC08091F602845C8093F6028091EF022A
:1017000081508093EF028091EF028C3344F18091FD
:10171000EF028C538093EF02809161028F5F809380
:10172000610220916102F999FECF1FBA84E090E036
:1017300092BD81BD20BD0FB6F894FA9AF99A0FBEFA
:101740002091EF02F999FECF1FBA85E090E092BD9B
:1017500081BD20BD0FB6F894FA9AF99A0FBE809118
:10176000EF0287FF28C08091EF02845C8093EF0234
:101770008091610281508093610220916102F99908
:10178000FECF1FBA84E090E092BD81BD20BD0FB6B0
:10179000F894FA9AF99A0FBE2091EF02F999FECFC8
:1017A0001FBA85E090E092BD81BD20BD0FB6F894D0
:1017B000FA9AF99A0FBE809161028831CCF080913B
:1017C00061028851809361028091E5028F5F80936E
:1017D000E5022091E502F999FECF1FBA83E090E07F
:1017E00092BD81BD20BD0FB6F894FA9AF99A0FBE4A
:1017F0008091610287FF19C080916102885E8093A9
:1018000061028091E50281508093E5022091E5021A
:10181000F999FECF1FBA83E090E092BD81BD20BD53
:101820000FB6F894FA9AF99A0FBE8091E5028032C9
:101830007CF58091E5028F3181F48091F50284304E
:1018400039F18091F502863019F18091F5028930E5
:10185000F9F08091F5028B30D9F08091E5028E315C
:1018600021F48091F502823099F08091E5028D316A
:1018700031F58091F502823011F58091E2029927CD
:1018800087FD90958053984F0E94CA018823B9F430
:1018900081E08093E5028091F5028F5F8093F502ED
:1018A0002091F502F999FECF1FBA82E090E092BD37
:1018B00081BD20BD0FB6F894FA9AF99A0FBE8091B7
:1018C000E50218160CF452C08091F5028630D1F072
:1018D000873064F4833029F184301CF4813094F42F
:1018E00033C0843079F0853079F510C08A301CF42B
:1018F000883044F40BC08B3029F08B303CF08C30B6
:1019000019F504C08091E502815E03C08091E50273
:10191000825E8093E5028091F50281508093F5020A
:1019200016C08091E202992787FD90958053984FC9
:101930000E94CA01882321F08091E502835EE9CFED
:101940008091E502845EE5CF81E08093E5022091FD
:10195000F502F999FECF1FBA82E090E092BD81BDF9
:1019600020BD0FB6F894FA9AF99A0FBE8091F5024D
:101970008D30BCF08091E2028F5F8093E20281E0C3
:101980008093F5022091E202F999FECF1FBA81E01F
:1019900090E092BD81BD20BD0FB6F894FA9AF99AF5
:1019A0000FBE8091F502181644F18091F502845F14
:1019B0008093F5028091E20281508093E2022091AF
:1019C000F502F999FECF1FBA82E090E092BD81BD89
:1019D00020BD0FB6F894FA9AF99A0FBE2091E20250
:1019E000F999FECF1FBA81E090E092BD81BD20BD84
:1019F0000FB6F894FA9AF99A0FBE0895982F80912D
:101A0000F0028823B1F08091F102891791F480915E
:101A1000E302861771F4442361F485EA90E061E003
:101A20000E94381581E08093F302109255021092C3
:101A3000540208951F920F920FB60F9211242F9304
:101A40003F934F935F936F937F938F939F93AF9346
:101A5000BF93EF93FF9380E8809361001092610041
:101A60008091F6028F5F8093F6020E94670B80914F
:101A70004902882309F05FC08091F402882311F5A0
:101A800080914A02882349F08091F60280FF05C0C8
:101A900082EA91E00E949E0608C0809161026091F6
:101AA000EF024091F6020E942E038091F0028823FB
:101AB00021F08091E602826003C08091E6028D7F72
:101AC0008093E6028091F202882329F480917A00C3
:101AD000806480937A00809161026091EF0240916E
:101AE000F6020E94FE0C80915C02882329F080910E
:101AF0005C02815080935C0280915B02882329F014
:101B000080915B02815080935B028091540290919E
:101B10005502009781F001979093550280935402EB
:101B200080FF04C08091E602826003C08091E602DB
:101B30008D7F8093E602FF91EF91BF91AF919F91CE
:101B40008F917F916F915F914F913F912F910F9066
:101B50000FBE0F901F9018954A9B34C08091F002E1
:101B6000882309F04CC081E08093F0021092550266
:101B7000109254028BEA91E00E949E0689E08093C5
:101B8000F4027894109257021092560280915602F5
:101B900090915702885E9340C8F38091F102609162
:101BA000E3020E94E30478941092570210925602C6
:101BB0008091560290915702885E9340C8F310922C
:101BC000F40208958091F0028823C9F01092F00287
:101BD00010925502109254028091F302882379F0FA
:101BE0008FEA90E061E00E9438151092F302809134
:101BF00081008D7F8093810085B1866085B90895CD
:101C0000BF92CF92DF92EF92FF920F931F93CF93E9
:101C1000DF938AE080935C0210E00AE0BB24B39477
:101C2000B1E0EB2EF12CA3E0CA2ED12CC2E0D0E023
:101C300080915902882321F480915A02882319F057
:101C400000935C0205C080915C02882309F472C095
:101C50008091590280FD15C18091590281FF6DC0AC
:101C6000109259021123D1F480914802882311F473
:101C700011E006C089EB90E061E00E94381512E0A7
:101C800080E00E94C5068091E70281608093E702B0
:101C90008091E80281608093E8024FC0113029F4FE
:101CA00080914802882339F020C01230E1F48091FD
:101CB00048028130A9F480914802882311F011E094
:101CC00001C012E080E00E94C5068091EA028160B6
:101CD0008093EA028091EB0281608093EB022DC039
:101CE000882339F015C0113099F480914802813071
:101CF00079F480E00E94C5068091ED0281608093B6
:101D0000ED028091EE0281608093EE0213E015C037
:101D100083E68093F40280E00E94C50678941092D6
:101D200057021092560280915602909157028C5D94
:101D30009540C8F31092F402A4C08091590282FD2C
:101D400004C080915A0282FF73CF10925902113061
:101D500079F58091F5028F5F8093F5028091F5020D
:101D60008D3014F01093F50280E00E94C50680913A
:101D70004802882359F48091E70281608093E7024A
:101D80008091E80281608093E8020AC08091EA02B3
:101D900081608093EA028091EB0281608093EB0284
:101DA0008091F502F999FECF1FBAD2BDC1BD53C0D3
:101DB000123079F58091E5028F5F8093E502809182
:101DC000E502803214F0B092E50280E00E94C50680
:101DD00080914802813059F48091E70281608093BC
:101DE000E7028091E80281608093E8020AC0809156
:101DF000EA0281608093EA028091EB028160809325
:101E0000EB028091E502F999FECF1FBAD2BCC1BCAA
:101E100022C0133031F58091E2028F5F8093E2029D
:101E20008091E20264E60E94A5169093E20280E0AF
:101E30000E94C5068091ED0281608093ED02809141
:101E4000EE0281608093EE028091E202F999FECF6A
:101E50001FBAF2BCE1BC80BD0FB6F894FA9AF99AA9
:101E60000FBE80915A0282FFE3CE789410925702FF
:101E7000109256028091560290915702CC97D0F35F
:101E8000D7CEDF91CF911F910F91FF90EF90DF9010
:101E9000CF90BF90089580914902882309F458C0DB
:101EA00080E8809361001092610080E391E061E03E
:101EB0000E9438151092490280E49CE90197F1F7DD
:101EC00000B605FC45C08EE284B988E48AB989E091
:101ED00087B984E38BB991E095B985E08093680078
:101EE00090936B0080E380936D000E948702F999C4
:101EF000FECF89E090E092BD81BDF89A80B58093D5
:101F0000F2028091F2020E94090381E58CBD5B9888
:101F10004398F999FECF8AE090E092BD81BDF89A8E
:101F200080B58093E4020E94E301A8950E94AC0D65
:101F300080E793E061E00E94400280EE96E061E07D
:101F40000E94400280EC9DE061E00E944002A89562
:101F500008951F920F920FB60F9211242F933F9363
:101F60004F935F936F937F938F939F93AF93BF93A1
:101F7000EF93FF9300B605FE3BC080914902882392
:101F800009F066C05B9A85B1877D85B95E988CB58E
:101F90008F7B8CBD80914B028823F1F02091EF0262
:101FA000F999FECF1FBA85E090E092BD81BD20BDBA
:101FB0000FB6F894FA9AF99A0FBE2091F602F999A1
:101FC000FECF1FBA86E090E092BD81BD20BD0FB666
:101FD000F894FA9AF99A0FBE83E491E061E00E94C6
:101FE000381515BC1092E4021092680045982BC079
:101FF00080914902882361F180914B028823F1F09E
:102000002091EF02F999FECF1FBA85E090E092BDD2
:1020100081BD20BD0FB6F894FA9AF99A0FBE2091AF
:10202000F602F999FECF1FBA86E090E092BD81BD1D
:1020300020BD0FB6F894FA9AF99A0FBE89E391E0A1
:1020400061E00E943815E0914602F091470209953F
:10205000FF91EF91BF91AF919F918F917F916F9180
:102060005F914F913F912F910F900FBE0F901F9056
:10207000189588E592E090935502809354028EE47F
:1020800091E061E00E94381584EB91E00E949E0689
:1020900089E08093F40278941092570210925602CD
:1020A0008091560290915702885E9340C8F3109237
:1020B000F40208951F920F920FB60F9211242F93DE
:1020C0003F934F935F936F937F938F939F93AF93C0
:1020D000BF93EF93FF9310926B00789418992AC0E6
:1020E0008091580281FD2BC0789410925702109273
:1020F000560280915602909157020A97D0F3189990
:102100001EC00E9418028091F302882319F00E94D9
:10211000391015C0809158028260809358028091D6
:10212000590282608093590285E491E061E00E9447
:10213000381505C0809158028D7F8093580281E048
:1021400080936B00FF91EF91BF91AF919F918F9121
:102150007F916F915F914F913F912F910F900FBEA3
:102160000F901F9018951F920F920FB60F92112487
:102170002F933F934F935F936F937F938F939F938F
:10218000AF93BF93EF93FF9310926D007894A8954F
:102190004D9927C08091580280FD28C078941092F4
:1021A00057021092560280915602909157020A9758
:1021B000D0F34D9963C00E9418028091F3028823E6
:1021C000C9F580915802816080935802809159022C
:1021D0008160809359028BE491E061E00E943815A0
:1021E00005C0809158028E7F809358024C993FC061
:1021F0008091580282FD42C078941092570210924A
:10220000560280915602909157020A97D0F34C994A
:1022100035C082E080935B021BC04C9B19C00E94BA
:102220001802809158028B7F809358028091F302AC
:10223000882319F00E94391021C088E491E061E000
:102240000E9438158091590284608093590216C00B
:1022500080915B02882309F7809158028460809303
:10226000580280915A02846080935A0207C01092EB
:102270005A02809158028B7F8093580280E38093AA
:102280006D00FF91EF91BF91AF919F918F917F91E1
:102290006F915F914F913F912F910F900FBE0F90D3
:1022A0001F9018958F929F92BF92CF92DF92EF92DC
:1022B000FF920F931F93DF93CF93CDB7DEB72F9786
:1022C0000FB6F894DEBF0FBECDBF8091C6008983E4
:1022D00090914C02992349F4843209F0E4C081E0E2
:1022E00080934C0282E692E0D7C002E612E0F80149
:1022F00001900020E9F73197E01BF10BE038F10580
:10230000C0F4369789F4C8016DEB71E00E94611644
:10231000009721F482E080934C02BDC080E8F80170
:1023200011928A95E9F7B4C08A3209F0B4C09230AC
:1023300019F080E8D801A9C084EC91E00E945915F9
:10234000C8010E945915C8016CE270E00E9456163F
:10235000DE011296FC01319626E001900D9221508B
:10236000E1F7188600E010E001966CE270E00E9450
:1023700056160F5F1F4F08301105B1F7DE01199691
:10238000FC01319686E001900D928150E1F71F86A5
:102390008E8590E0805192402D854AE0249F9001E7
:1023A0001124820F931F0A970CF46BC010916102E5
:1023B0000091EF028091F602CE0102960E94F10A8E
:1023C000CE0109960E94450B0E94670B3091610275
:1023D0008091EF022CE33202D0011124992787FD6E
:1023E0009095A80FB91F812E99248CE390E0889EC8
:1023F000F001899EF00D989EF00D1124E00FF11D63
:10240000E0906102F090EF02AD014E1B5F0B57FFB1
:1024100018C0BD0160567A4F6E177F0790F09A0181
:1024200020563A4F37FF03C0309521953F4F8827FC
:102430009927841B950B281739071CF4B8E1EB0E7C
:1024400001C0BD01E617F707E0F400E010E0CE2C74
:10245000DD24C7FCD0940FC08B2D6F2D40E00E946F
:10246000FE0CFA9402C0BE2CB01AF7FEF5CF0F5F37
:102470001F4F8BE3F82EC601801B910B8815990521
:1024800094F780E8E2E6F2E0DF011D928A95E9F731
:1024900010924C0208C0C801BE016F5F7F4F41E03F
:1024A00050E00E946A162F960FB6F894DEBF0FBE5A
:1024B000CDBFCF91DF911F910F91FF90EF90DF90F3
:1024C000CF90BF909F908F900895CF92DF92EF9220
:1024D000FF920F931F93CF93DF93109144020091CB
:1024E0004D028AE080935C02FF243AE0E32E2EE066
:1024F000C22ED12CCDE0D0E08091590280FDC4C025
:1025000080915902882321F480915A02882319F07E
:10251000E0925C0204C080915C028823A9F1809162
:10252000590281FF34C010925902FF20A9F4812F73
:10253000992787FD9095602F70E00E944D0680914D
:10254000E70281608093E7028091E80281608093D6
:10255000E802FF24F3941BC081E0F816A9F4812F50
:10256000992787FD9095602F70E00E944D0680911D
:10257000EA0281608093EA028091EB02816080939D
:10258000EB0292E0F92E03C01092F4027DC080911C
:10259000590282FD04C080915A0282FFADCF109291
:1025A000590281E0F816A9F5812F992787FD9095AA
:1025B0000D9669E170E00E94C616182F1C50812FFD
:1025C000992787FD9095602F70E00E944D068091BD
:1025D000E70281608093E7028091E8028160809346
:1025E000E80210934402F999FECF1FBAD2BDC1BDD3
:1025F00010BD0FB6F894FA9AF99A0FBE87EC91E0E5
:102600000E945915812F992787FD90950E94AC153E
:102610002AC082E0F81639F5802F90E001966CE32D
:1026200070E00E94C616082F812F992787FD90958C
:10263000602F70E00E944D068091EA0281608093D5
:10264000EA028091EB0281608093EB0200934D02DD
:10265000F999FECF1FBAD2BCC1BC00BD0FB6F89429
:10266000FA9AF99A0FBE80915A0282FF45CF789468
:102670001092570210925602809156029091570282
:102680008B349105C8F338CFDF91CF911F910F9113
:10269000FF90EF90DF90CF900895AF92BF92CF92CE
:1026A000DF92EF92FF920F931F9315BC569A5E989C
:1026B00084B714BE90E00E948F1588E10FB6F8949D
:1026C00080936000109260000FBE2FE088E190E0E0
:1026D0000FB6F894A895809360000FBE2093600019
:1026E000A89511E010934A0210924B0287E690E001
:1026F0000E9416158EE291E061E00E94381580EE8E
:1027000091E00E94591581EF91E00E94591580E8EF
:1027100090E00E94AC1584EC91E00E94591528E4E9
:1027200020BF80ED97E00197F1F700B605FE0BC0E2
:1027300080B7806180BF83E291E061E00E9438153C
:102740000E9455017EC08EE284B92AB989E087B91A
:1027500084E38BB915B985E08093680010936B0012
:1027600080E380936D005B9880E191E061E00E94DE
:1027700038158DEF90E061E00E94381510936900E4
:102780001DBB1092F40284EF90E061E00E943815C6
:1027900081E58CBD0E94870289EE90E061E00E9495
:1027A0003815F999FECF89E090E092BD81BDF89A85
:1027B00080B58093F2028091F2020E94090378941E
:1027C000F999FECF8DE090E092BD81BDF89A80B579
:1027D00080934402845F893110F010924402F99989
:1027E000FECF8EE090E092BD81BDF89A80B58093D7
:1027F0004D028D3310F010924D02F999FECF8BE00F
:1028000090E092BD81BDF89A80B5809348028CED2E
:1028100090E061E00E9438150E94E30180EA9FE0A9
:1028200061E00E94400281ED90E061E00E94381575
:102830000E94550186EC90E061E00E9438150E94EC
:10284000AC0D81EC90E061E00E943815F3E6AF2E0C
:10285000EBE0BE2E78E0C72E67E0D62E56E0E52EE0
:1028600045E0F42E03E014E0A89500B605FE03C091
:102870000E94DA00F9CF8091590280FF58C010926F
:1028800059028091F402853071F1863038F483303A
:1028900009F18430A0F4882349F066C08730F1F153
:1028A000873098F18B3009F05FC026C01093F40296
:1028B00084E092E00E949E060E94630557C0009348
:1028C000F4028EE092E00E949E060E94D6031092CF
:1028D0004A024CC0F092F40287E192E00E949E0608
:1028E0000E94000E43C0B092F40280E292E00E9487
:1028F0009E060E9465123AC0E092F40289E292E0DC
:102900000E949E060E945F0931C0D092F40282E3C9
:1029100092E00E949E060E94C10828C0C092F40264
:102920008BE392E00E949E060E9453081FC0809194
:10293000590281FD04C08091590282FF17C0109294
:102940005902A092F40281E00E94C506A8957894ED
:10295000109257021092560280915602909157029F
:102960008C5D9540C8F3A8951092F4028091C00048
:1029700087FF7ACF0E94521177CF1F920F920FB626
:102980000F9211242F933F934F935F936F937F93F5
:102990008F939F93AF93BF93EF93FF931DBA89E6F5
:1029A0000E94231529B178947894109257021092BE
:1029B000560280915602909157020A97D0F389B13E
:1029C000247030E090E0847090702817390711F47B
:1029D0000E94AC0D81E08DBBFF91EF91BF91AF9153
:1029E0009F918F917F916F915F914F913F912F9127
:1029F0000F900FBE0F901F90189506C090E000003A
:102A00009F5F9E31E1F781508823C1F7089548EC1C
:102A100050E009C020E137E2FA013197F1F7215087
:102A20003040D1F781508823A9F708959093C500CD
:102A30008093C40088E18093C1008EE08093C2003F
:102A4000519A50980895982F8091C00085FFFCCF2F
:102A50009093C60080E090E008958091C00087FFC9
:102A6000FCCF8091C60008958091C00080780895C1
:102A7000AC0120E007C08091C00085FFFCCF3093FF
:102A8000C6002F5FFA01E20FF11D3491332399F74D
:102A9000662371F08091C00085FFFCCF8AE08093AF
:102AA000C6008091C00085FFFCCF8DE08093C600FA
:102AB0000895FC0107C08091C00085FFFCCF3196CE
:102AC0009093C60090819923B1F70895282F982FED
:102AD00092959F709A3030F48091C00085FFFCCFB2
:102AE000905D05C08091C00085FFFCCF995A9093FE
:102AF000C600822F90E08F7090700A973CF480910E
:102B0000C00085FFFCCF2F70205D06C08091C00003
:102B100085FFFCCF2F70295A2093C60008951F937C
:102B2000182F892F0E946615812F0E9466151F910C
:102B30000895EF92FF920F931F937B018C01C801C0
:102B4000AA27BB270E948F15C7010E948F151F91CE
:102B50000F91FF90EF9008950F931F93CF93DF9302
:102B60008C01E0E1F7E240E0C0E0D0E0C801BF0145
:102B70000E94B216262F662329F4442319F4E1306B
:102B8000F10549F48091C00085FFFCCF205D2093C2
:102B9000C600205341E0CF016AE070E00E94B21607
:102BA0002196C530D10571F0822F90E09C012E9FB7
:102BB000C0012F9F900D3E9F900D1124081B190BF3
:102BC000FB01D4CFDF91CF911F910F9108954F92C8
:102BD0005F926F927F928F929F92AF92BF92CF92AD
:102BE000DF92EF92FF920F931F93CF93DF934B01EE
:102BF0005C01E12C9AECF92E9AE9092F9BE3192F3D
:102C00004424C0E0D0E0C501B401A80197010E94AE
:102C1000D916D22E222341F4442031F481E0E81663
:102C2000F1040105110561F48091C00085FFFCCF1E
:102C300080E3D80ED092C60080EDD80E4424439491
:102C4000C801B7012AE030E040E050E00E94D91608
:102C5000C22E732E642E552E2196CA30D105A9F0AE
:102C60006D2D70E080E090E0A80197010E947A1637
:102C7000861A970AA80AB90A2C2D372D462D552DEC
:102C8000C901DA017C018D01BECFDF91CF911F9187
:102C90000F91FF90EF90DF90CF90BF90AF909F90FB
:102CA0008F907F906F905F904F900895FC0181917D
:102CB000861721F08823D9F7992708953197CF01F6
:102CC0000895FB01DC018D91019080190110D9F369
:102CD000990B0895FB01DC010D900020E9F7119795
:102CE0004150504028F0019000200D92C9F70895FE
:102CF0001C920895629FD001739FF001829FE00DA6
:102D0000F11D649FE00DF11D929FF00D839FF00D6A
:102D1000749FF00D659FF00D9927729FB00DE11D16
:102D2000F91F639FB00DE11DF91FBD01CF011124F3
:102D30000895991B79E004C0991F961708F0961B17
:102D4000881F7A95C9F78095089587FB082E062677
:102D500087FD819567FD6195ECDF0EF4919507FC89
:102D600081950895AA1BBB1B51E107C0AA1FBB1F79
:102D7000A617B70710F0A61BB70B881F991F5A9507
:102D8000A9F780959095BC01CD01089597FB092E78
:102D900007260AD077FD04D0E5DF06D000201AF41C
:102DA000709561957F4F0895F6F7909581959F4FA7
:102DB0000895A1E21A2EAA1BBB1BFD010DC0AA1F7C
:102DC000BB1FEE1FFF1FA217B307E407F50720F094
:102DD000A21BB30BE40BF50B661F771F881F991F0F
:102DE0001A9469F760957095809590959B01AC0158
:102DF000BD01CF01089597FB092E05260ED057FD82
:102E000004D0D7DF0AD0001C38F450954095309597
:102E100021953F4F4F4F5F4F0895F6F7909580955E
:102E2000709561957F4F8F4F9F4F0895F894FFCF16
:102E300073756E646179006D6F6E6461790074758D
:102E40006573646179007765646E73646179007499
:102E50006875727364617900667269646179007380
:102E600061747572646179006A616E006665620002
:102E70006D6172636800617072696C006D617900E8
:102E80006A756E65006A756C7900617567737400A8
:102E900073657074006F63746F62006E6F76656D3A
:102EA00000646563656D007573612D313268720071
:102EB0006575722D3234687200766F6C20686967B0
:102EC0006800766F6C20206C6F77006272697465A1
:102ED0002000202020202020202000616C61726DC5
:102EE000206F6E00736E6F6F7A696E6700244750B3
:102EF000524D43000A0D000A0D54696D657A6F6EDC
:102F000065206F666673657420686F75723A090094
:102F10000A0D48656C6C6F20576F726C64210A0D46
:102F2000000A0D4275666665722073697A652069CC
:102F3000733A090073657420616C61726D0073658A
:102F4000742074696D650073657420646174650034
:102F5000736574207A6F6E650073657420627269A0
:102F6000740073657420766F6C2000736574207232
:062F700065676E00FA0027
:00000001FF
