:100000000C94CE000C94E60F0C94EB000C94160E9E
:100010000C94EB000C946F0E0C94EB000C94EB0022
:100020000C94EB000C942E0C0C94EB000C94EB0055
:100030000C94EB000C94EB000C94EB000C94EB0094
:100040000C94DA090C94EB000C94EB000C94EB008C
:100050000C94EB000C9448030C94EB000C94650D8D
:100060000C94EB000C94EB00FA3E1A7ADE8EF62E1E
:100070006078AE1CAA2A3ACEF30AB61E3838B86E9B
:1000800076DA6800FC60DAF266B6BEE0FEF684005E
:1000900074776920253032783A253032780D0A009D
:1000A00003070809060A050C04A0000B10120F0D27
:1000B0000E1113AB00000302050003050104060244
:1000C000041F1C1F1E1F1E1F1F1E1F1E1FC100619D
:1000D0006C61726D206F6E2100616C61726D206FBA
:1000E0006666004368726F6E6F446F742063686564
:1000F000636B206661696C656421005365742064DC
:100100006179004368726F6E6F446F742073657419
:100110002100646F6E6500616C61726D20696E69AB
:100120007400636C6F636B20696E69740073706533
:10013000616B657220696E697400626F6F73742001
:10014000696E69740076666420696E6974007475FE
:10015000726E696E67206F6E20616C61726D73776D
:10016000007475726E696E67206F6E2062757474AC
:100170006F6E7300210077616B6574696D65005760
:10018000414B455245534554007A00623200623378
:1001900000623100736E6F6F7A65000011241FBE1C
:1001A000CFEFD4E0DEBFCDBF12E0A0E0B1E0E2EAE5
:1001B000F7E302C005900D92A633B107D9F712E01C
:1001C000A6E3B2E001C01D92A73EB107E1F70E948D
:1001D0006F150C94CF1B0C9400001092B90080E2B4
:1001E0008093B80008959C01789410924602109272
:1001F0004502809145029091460282179307C8F309
:100200000895A895089581E0809339025B9A8CB592
:100210008F7B8CBD85B1877D85B95E9815BC1092AA
:10022000D30210926800459885B1897F85B98BB15A
:100230008F7C8BB928988AB18F7C8AB920985A987C
:100240005298E1E6F0E090E8908388E08083449A59
:1002500083B7876083BF8895908310824498089500
:100260008EE284B988E48AB989E087B984E38BB9DE
:1002700091E095B985E08093680090936B0080E3EE
:1002800080936D000895482F6AE00E941B1B282F61
:1002900030E084E0220F331F8A95E1F7842F0E941B
:1002A0001B1B892F822B0895282F22952F709AE0EF
:1002B000299F900111248F70820F08959C0100974F
:1002C000A9F4E8E6F0E0849181608093DC02749602
:1002D000E491E160E093DD028091E102882341F541
:1002E00080917A00806480937A0008956AE070E0DB
:1002F0000E94481BFB01EC57FF4FE491E160E09343
:10030000DC02C9016AE070E00E94481BFC01EC5766
:10031000FF4FE491E160E093DD02922F2B3510F066
:100320009AE503C02E3108F49EE187B5891397BD85
:100330000895E6EBF0E080818064808380818062B4
:1003400080831092B00085E08093B100E1E6F0E098
:1003500080E88083108281E0809370000895F9998D
:10036000FECF88E090E092BD81BDF89A80B56CE345
:100370000E941B1B9093D202F999FECF87E090E078
:1003800092BD81BDF89A80B568E10E941B1B9093D5
:10039000E00208951F93CF93DF9390E08053984F2E
:1003A00020E030E0633010F421E030E0EC01C21BCB
:1003B000D30B862F90E08C549F4FFC0114919E012B
:1003C000240F311DCE019695879596958795280F18
:1003D000391FCE0160E971E00E94341B260F371FE0
:1003E000CE0164E670E00E94341B261B370BC90166
:1003F000810F911D67E070E00E94341BDF91CF9167
:100400001F910895FC0183709070892B39F4CF01FE
:1004100064E670E00E94341B892B49F420E030E050
:10042000CF0160E971E00E94341B892B11F421E0B7
:1004300030E0822F08951F93162F623049F490E028
:100440008053984F0E940202882311F08DE105C06D
:10045000E12FF0E0E054FF4F84911F9108950F9336
:100460001F93382F142F022F8091E60282FF41C084
:1004700080913802962F9450882391F49730D8F1C8
:10048000633031F4832F4EE00E94CA019EE011C018
:100490006B3079F5832F47E00E94CA0197E01AC0BC
:1004A000963048F1633079F4832F4FE10E94CA01FE
:1004B0009FE1981B9117D0F0191789F480E090E024
:1004C0000230D0F013C06A30A1F4832F4FE10E94B4
:1004D000CA019FE1981B191748F0191719F080E01D
:1004E00090E00AC080E090E0002331F481E090E0E9
:1004F00003C080E001C081E01F910F910895F99938
:10050000FECF8AE090E092BD81BDF89A80B58093DD
:10051000D30285B1866085B982E3809380008091A3
:10052000D302882329F08091800080688093800026
:1005300088E1809381008AEF90E090938700809318
:10054000860080918600909187009695879590937C
:100550008900809388008091880090918900909311
:100560008B0080938A000895109280001092810081
:10057000299A2A9878941092460210924502809106
:100580004502909146020A97D0F32A9A29987894C6
:1005900010924602109245028091450290914602C7
:1005A0000A97D0F385B1897F85B982EB809380006B
:1005B00088E18093810008951F93162F9C0140E0ED
:1005C00050E060E472E48FE090E00E947D1B309385
:1005D00087002093860080918600909187009695F1
:1005E000879590938B0080938A0080918A009091E8
:1005F0008B00909389008093880028EC30E01CC029
:100600008091810082608093810080ED97E0F90104
:100610003197F1F70197D9F7809181008D7F809311
:10062000810085B1897F85B980ED97E0F901319727
:10063000F1F70197D9F71150112311F785B1897F8F
:1006400085B91F9108953D9A459AAAE7B0E08C912B
:1006500086608C93ECE7F0E0808180648083808109
:1006600084608083EEE7F0E08081806180838C91FC
:1006700080688C938C9188608C9308958091E102BE
:10068000882329F480917A00806480937A00089509
:100690001F920F920FB60F9211242F933F934F93F7
:1006A0005F936F937F938F939F93AF93BF93EF93DA
:1006B000FF938091E1028823B9F530917800209171
:1006C0007900922F80E0632F70E0682B792B83E014
:1006D0006F3F780718F08DE290E01BC082E069352B
:1006E000780718F48AE590E014C06855724080E0FD
:1006F00090E02DE230E040E050E00E94FC1A27EA52
:1007000031E040E050E00E945B1B8AE590E0821BF4
:10071000930B982F8B3510F09AE503C08E3108F4B7
:100720009EE187B5891397BDFF91EF91BF91AF917E
:100730009F918F917F916F915F914F913F912F91F9
:100740000F900FBE0F901F901895982F8B3510F0BB
:100750009AE503C08E3108F49EE187B5891397BDF1
:1007600083E084BD81E085BD84B5806884BD8091CF
:100770006E00816080936E0078940895982F8B3579
:1007800010F09AE503C08E3108F49EE187B5891315
:1007900097BD08951F93182F262F842F6AE00E947B
:1007A0001B1BE92FF0E0EC57FF4FE491E093DD02D3
:1007B000842F0E941B1BE82FF0E0EC57FF4FE491C1
:1007C000E093DC0280913D02833091F0843028F484
:1007D000813091F0823050F407C0853069F0853067
:1007E00048F0863069F40AC088E00BC080E409C094
:1007F00080E807C084E005C082E003C080E201C059
:1008000080E18093D8028093DB0280913D028730A3
:1008100019F410923D0205C080913D028F5F8093D4
:100820003D02822F6AE00E941B1BE92FF0E0EC578B
:10083000FF4FE491E093DA02822F0E941B1BE82F06
:10084000F0E0EC57FF4FE491E093D9028091380239
:10085000882361F5812F90E00B966CE070E00E9498
:10086000481B9C012F5F3F4FC9016AE070E00E9466
:10087000481BFC01EC57FF4FE491E093D702C901FC
:100880006AE070E00E94481BFB01EC57FF4FE491C7
:10089000E093D6021C3020F08091D502816003C025
:1008A0008091D5028E7F8093D5021AC0812F68E196
:1008B0000E941B1B292F892F6AE00E941B1BE92F16
:1008C000F0E0EC57FF4FE491E093D702822F0E94B3
:1008D0001B1BE82FF0E0EC57FF4FE491E093D602AA
:1008E0001F910895382F262F1092DD021092DC02FE
:1008F0001092DB02862F6AE00E941B1BE92FF0E0BA
:10090000EC57FF4FE491E093DA02822F0E941B1B09
:10091000E82FF0E0EC57FF4FE491E093D9021092FA
:10092000D80280913802882309F03BC03C3058F04F
:100930008091D50281608093D502E7E7F0E0E491F1
:10094000E093DC020AC0E8E6F0E0E491E093DC0228
:100950008091D5028E7F8093D502E4E7F0E0E491A8
:10096000E093DD02832F90E00B966CE070E00E9434
:10097000481B9C012F5F3F4FC9016AE070E00E9455
:10098000481BFC01EC57FF4FE491E093D702C901EB
:100990006AE070E00E94481BFB01EC57FF4FE491B6
:1009A0001EC0832F90E0479668E170E00E94481BCC
:1009B0009C012F5F3F4FC9016AE070E00E94481B15
:1009C000FC01EC57FF4FE491E093D702C9016AE0C4
:1009D00070E00E94481BFB01EC57FF4FE491E0934D
:1009E000D6020895EF92FF920F931F931091E002A9
:1009F0000091D2028AE080934B02FF24EAE0EE2EBF
:100A00008091480280FDD3C080914802882321F460
:100A100080914902882319F0E0924B0229C080910D
:100A20004B02882329F51092E3021093E002009311
:100A3000D2022091E002F999FECF1FBA87E090E040
:100A400092BD81BD20BD0FB6F894FA9AF99A0FBEF7
:100A50002091D202F999FECF1FBA88E090E092BDB2
:100A600081BD20BD0FB6F894FA9AF99A0FBE9FC0C7
:100A70008091480281FF4EC010924802FF2089F405
:100A8000812F602F0E9472048091D6028160809332
:100A9000D6028091D70281608093D702FF24F3941D
:100AA00039C081E0F81689F4812F602F0E9472040A
:100AB0008091D90281608093D9028091DA028160AD
:100AC0008093DA0272E0F72E25C01093E0020093C3
:100AD000D2022091E002F999FECF1FBA87E090E0A0
:100AE00092BD81BD20BD0FB6F894FA9AF99A0FBE57
:100AF0002091D202F999FECF1FBA88E090E092BD12
:100B000081BD20BD0FB6F894FA9AF99A0FBE1092E3
:100B1000E3024DC08091480282FD04C080914902E9
:100B200082FF6ECF1092480281E0F816B1F4812F57
:100B300090E0019668E170E00E94481B182F602F3A
:100B40000E9472048091D60281608093D6028091C7
:100B5000D70281608093D70219C082E0F816B1F401
:100B6000802F90E001966CE370E00E94481B082FF4
:100B7000812F602F0E9472048091D902816080933E
:100B8000D9028091DA0281608093DA028091490271
:100B900082FF36CF789410924602109245028091DF
:100BA0004502909146028B349105C8F329CF1F91DD
:100BB0000F91FF90EF900895482F262FEAE6F0E07E
:100BC00084918093DD02719684918093DC0231964A
:100BD000E491E093DB02862F6AE00E941B1BE92F61
:100BE000F0E0EC57FF4FE491E093DA02822F0E948D
:100BF0001B1BE82FF0E0EC57FF4FE491E093D90284
:100C00001092D802242F332727FD309537FF03C0D9
:100C1000309521953F4FC9016AE070E00E94481B62
:100C2000FC01EC57FF4FE491E093D702C9016AE061
:100C300070E00E94481BFB01EC57FF4FE491E093EA
:100C4000D60247FD04C08091D5028D7F03C08091FC
:100C5000D50282608093D5020895CF93DF931092DE
:100C6000D502EC01A6EDB2E0E881EE23D1F08E2FA3
:100C700081568A3128F4F0E0E95FFF4FE49108C023
:100C80008E2F80538A3030F4F0E0EC5AFF4FE4911D
:100C9000EC9301C01C922196119682E0AE3DB807FC
:100CA00019F7DF91CF910895CF93DF93882309F04F
:100CB00096C01092D50282E08093D8028093DB0226
:100CC00080913802882309F037C08091E4026AE0FD
:100CD0000E94271BE82FFF27E7FDF095EC57FF4FF9
:100CE000E491E093D6028091E4026AE00E94271B1F
:100CF000E92FFF27E7FDF095EC57FF4FE491E093D4
:100D0000D7028091D4026AE00E94271BE82FFF27B8
:100D1000E7FDF095EC57FF4FE491E093D902809105
:100D2000D4026AE00E94271BE92FFF27E7FDF09518
:100D3000EC57FF4FE49136C08091D4026AE00E94E4
:100D4000271BE82FFF27E7FDF095EC57FF4FE491B5
:100D5000E093D6028091D4026AE00E94271BE92F1B
:100D6000FF27E7FDF095EC57FF4FE491E093D702A2
:100D70008091E4026AE00E94271BE82FFF27E7FD2D
:100D8000F095EC57FF4FE491E093D9028091E40293
:100D90006AE00E94271BE92FFF27E7FDF095EC573B
:100DA000FF4FE491E093DA028091D1026AE00E9461
:100DB000271BE82FFF27E7FDF095EC57FF4FE49145
:100DC000E093DC028091D1026AE00E94271BE92FA8
:100DD000FF27E7FDF095EC57FF4FE491EEC081301F
:100DE00009F0EDC08091E402C82FDD27C7FDD09542
:100DF0008091D102E82FFF27E7FDF095E053F84FEF
:100E00008091E402833014F42C9631972091D4021F
:100E10001092DC021092DD02332727FD30952F5F00
:100E20003F4F2E0F3F1FCE01880F991F280F391FEC
:100E3000CF019695879596958795280F391FCF01F5
:100E400060E971E00E94341B260F371FCF0164E672
:100E500070E00E94341B261B370BAE014F5F5F4FC3
:100E6000CA01880F991F840F951F880F991F6AE088
:100E700070E00E94341BC901860F971F67E070E085
:100E80000E94341B8330B9F0843028F4813069F03B
:100E9000823070F407C08530A1F0853078F086305C
:100EA000B9F412C080E091E011C087E091E00EC07B
:100EB0008EE091E00BC086E191E008C08FE191E007
:100EC00005C088E291E002C08FE291E00E942D0609
:100ED00078941092460210924502809145029091BA
:100EE0004602885E9340C8F31092D9021092DA024B
:100EF0001092DB028091E402863079F1873074F43D
:100F0000833011F184302CF48130C1F08230D9F576
:100F100018C08430E1F08530B1F51CC0893031F162
:100F20008A302CF48730E1F0883069F51CC08B30B2
:100F300019F18B30F4F08C3031F521C088E391E069
:100F400020C08CE391E01DC080E491E01AC086E4EB
:100F500091E017C08CE491E014C080E591E011C0ED
:100F600085E591E00EC08AE591E00BC080E691E056
:100F700008C085E691E005C08BE691E002C081E7FC
:100F800091E00E942D068091D4026AE00E94271B06
:100F9000E82FFF27E7FDF095EC57FF4FE491E09332
:100FA000DC028091D4026AE00E94271BE92FFF2710
:100FB000E7FDF095EC57FF4FE491E093DD02DF9100
:100FC000CF9108950F931F93CF93DF938AE080937F
:100FD0004B02F999FECF8BE090E092BD81BDF89A6B
:100FE00080B58093380210E00AE0CBE0D0E001C089
:100FF00010E080914802882321F4809149028823DF
:1010000019F000934B0204C080914B028823C9F071
:101010008091480280FD3FC08091480281FF14C04A
:1010200010924802112369F480913802882319F440
:1010300087E791E002C080E891E00E942D0611E070
:1010400003C01092E30227C08091480282FFD1CFF3
:1010500010924802113061F690E0809138028823A6
:1010600009F491E090933802992319F487E791E00D
:1010700002C080E891E00E942D0680913802F99923
:10108000FECF1FBAD2BDC1BD80BD0FB6F894FA9A8B
:10109000F99A0FBEAECFDF91CF911F910F910895B6
:1010A000EF92FF920F931F93CF93DF938AE0809389
:1010B0004B02F999FECF8AE090E092BD81BDF89A8B
:1010C000F0B400E05AE0E52ECAE0D0E001C000E054
:1010D00080914802882321F480914902882319F0E5
:1010E000E0924B0204C080914B02882369F1809109
:1010F000480280FD6CC08091480281FF28C0109298
:101100004802002309F5FF2051F089E891E00E9490
:101110002D068091DA0281608093DA0204C082E9B0
:1011200091E00E942D068091DB0281608093DB02BA
:101130008091DC0281608093DC028091DD0281601D
:101140008093DD0201E003C01092E30240C0809171
:10115000480282FFBDCF10924802013009F0B7CF9C
:1011600010E0FF2009F411E0F12E112351F089E87D
:1011700091E00E942D068091DA0281608093DA026C
:1011800004C082E991E00E942D068091DB0281601B
:101190008093DB028091DC0281608093DC0280918D
:1011A000DD0281608093DD02F999FECF1FBAD2BDC6
:1011B000C1BD10BD0FB6F894FA9AF99A0FBE0E94FD
:1011C0007F0280EA9FE061E00E94DC0281CFDF9134
:1011D000CF911F910F91FF90EF900895FF920F9381
:1011E0001F938AE080934B0210E06AE0F62E0EE136
:1011F00001C010E080914802882321F480914902C7
:10120000882319F0F0924B020BC080914B02882387
:1012100039F41092E3022091E102F999FECF1DC04A
:101220008091480280FD4AC08091480281FF21C020
:1012300010924802112359F48BE991E00E942D0687
:101240008091E10290E00E945E0111E012C01092D4
:10125000E3022091E102F999FECF1FBA89E090E004
:1012600092BD81BD20BD0FB6F894FA9AF99A0FBECF
:1012700025C08091480282FD04C08091490282FF0E
:10128000B9CF10924802113009F0B3CF8091E1023A
:10129000882319F40093E1020BC08091E1028B5F77
:1012A0008093E1028091E1028B3510F01092E1020F
:1012B0008091E10290E00E945E019CCF1F910F910E
:1012C000FF90089581E58CBD08959B01AC01F894D1
:1012D000AA27BB278EBD0DB407FEFDCFBB27A52FC8
:1012E000942F832F8EBD0DB407FEFDCF2EBD0DB400
:1012F00007FEFDCF409A409878940895AF92BF9230
:10130000CF92DF92EF92FF920F931F93E82FF0E0BE
:10131000E056FF4FE49181E090E002C0880F991FF2
:10132000EA95E2F77C010027F7FC0095102F209149
:101330004C0230914D0240914E0250914F02A0E07C
:10134000B0E070E0F1E0AF2EB12CC12CD12CCB017C
:101350000A2E02C0959587950A94E2F780FF11C086
:10136000FD01E555FF4FE491A601950104C0220F50
:10137000331F441F551FEA95D2F7E22AF32A042BA4
:10138000152B1196A830B10511F720934C0230931C
:101390004D0240934E0250934F02C801B7010E9484
:1013A00065091F910F91FF90EF90DF90CF90BF9054
:1013B000AF9008951F920F920FB60F9211242F93A2
:1013C0003F934F935F936F937F938F939F93AF93CD
:1013D000BF93EF93FF937894A89580913F029091EB
:1013E000400201969093400280933F02819708F457
:1013F0006CC01092400210923F0280914502909181
:1014000046020196909346028093450280913E02E7
:10141000893010F010923E0280913E02E82FF0E0F9
:10142000EB52FD4F60810E947E0980913E028F5FEA
:1014300080933E028091E202882309F446C08091A5
:10144000430290914402892B09F03FC080914102F0
:101450009091420201969093420280934102853618
:10146000910598F110924202109241028AEF90E0A9
:1014700090938700809386008091860090918700EA
:101480009695879590938B0080938A0080918A002F
:1014900090918B0090938900809388008091E20264
:1014A000807F49F08091E2028F708093E202809108
:1014B00081008D7F08C08091E202806F8093E202FC
:1014C00080918100826080938100FF91EF91BF91B4
:1014D000AF919F918F917F916F915F914F913F91CC
:1014E0002F910F900FBE0F901F9018958091E502DD
:1014F0008C3354F08091E5028C538093E502809107
:10150000DE028F5F8093DE028091E50287FF0AC0D2
:101510008091E502845C8093E5028091DE02815037
:101520008093DE028091DE028C3344F18091DE02F2
:101530008C538093DE02809150028F5F8093500223
:1015400020915002F999FECF1FBA84E090E092BD3D
:1015500081BD20BD0FB6F894FA9AF99A0FBE20917A
:10156000DE02F999FECF1FBA85E090E092BD81BD01
:1015700020BD0FB6F894FA9AF99A0FBE8091DE0258
:1015800087FF28C08091DE02845C8093DE02809118
:10159000500281508093500220915002F999FECF61
:1015A0001FBA84E090E092BD81BD20BD0FB6F894D3
:1015B000FA9AF99A0FBE2091DE02F999FECF1FBA6E
:1015C00085E090E092BD81BD20BD0FB6F894FA9AF7
:1015D000F99A0FBE809150028831CCF08091500270
:1015E0008851809350028091D4028F5F8093D402FF
:1015F0002091D402F999FECF1FBA83E090E092BD0A
:1016000081BD20BD0FB6F894FA9AF99A0FBE809169
:10161000500287FF19C080915002885E809350026B
:101620008091D40281508093D4022091D402F99900
:10163000FECF1FBA83E090E092BD81BD20BD0FB602
:10164000F894FA9AF99A0FBE8091D40280327CF510
:101650008091D4028F3181F48091E402843039F199
:101660008091E402863019F18091E4028930F9F02A
:101670008091E4028B30D9F08091D4028E3121F434
:101680008091E402823099F08091D4028D3131F55D
:101690008091E402823011F58091D102992787FD73
:1016A00090958053984F0E9402028823B9F481E0FC
:1016B0008093D4028091E4028F5F8093E4022091B2
:1016C000E402F999FECF1FBA82E090E092BD81BD9D
:1016D00020BD0FB6F894FA9AF99A0FBE8091D40201
:1016E00018160CF452C08091E4028630D1F0873095
:1016F00064F4833029F184301CF4813094F433C0D5
:10170000843079F0853079F510C08A301CF4883047
:1017100044F40BC08B3029F08B303CF08C3019F541
:1017200004C08091D402815E03C08091D402825EA5
:101730008093D4028091E40281508093E40216C029
:101740008091D102992787FD90958053984F0E94F0
:101750000202882321F08091D402835EE9CF809138
:10176000D402845EE5CF81E08093D4022091E4022C
:10177000F999FECF1FBA82E090E092BD81BD20BDF5
:101780000FB6F894FA9AF99A0FBE8091E4028D3060
:10179000BCF08091D1028F5F8093D10281E0809371
:1017A000E4022091D102F999FECF1FBA81E090E0C6
:1017B00092BD81BD20BD0FB6F894FA9AF99A0FBE7A
:1017C0008091E402181644F18091E402845F8093D2
:1017D000E4028091D10281508093D1022091E402F1
:1017E000F999FECF1FBA82E090E092BD81BD20BD85
:1017F0000FB6F894FA9AF99A0FBE2091D102F9998E
:10180000FECF1FBA81E090E092BD81BD20BD0FB632
:10181000F894FA9AF99A0FBE08958EBD0DB407FE9A
:10182000FDCF0895982F8091DF028823B1F0809139
:10183000E002891791F48091D202861771F4442353
:1018400061F48FEC90E061E00E943D1781E08093AD
:10185000E202109244021092430208951F920F92E6
:101860000FB60F9211242F933F934F935F936F9373
:101870007F938F939F93AF93BF93EF93FF9380E8F2
:1018800080936100109261008091E5028F5F8093E8
:10189000E5020E94760A80913902882309F052C03D
:1018A0008091E3028823A9F4809150026091DE02C6
:1018B0004091E5020E94CA038091DF02882321F053
:1018C0008091D502826003C08091D5028D7F809384
:1018D000D5028091E102882329F480917A00806406
:1018E00080937A00809150026091DE024091E5027F
:1018F0000E94120C80914B02882329F080914B02A8
:10190000815080934B0280914A02882329F0809174
:101910004A02815080934A0280914302909144028E
:10192000009781F00197909344028093430280FFD7
:1019300004C08091D502826003C08091D5028D7F62
:101940008093D502FF91EF91BF91AF919F918F91BD
:101950007F916F915F914F913F912F910F900FBEAB
:101960000F901F9018954A9B34C08091DF02882306
:1019700009F04CC081E08093DF0210924402109283
:10198000430282EA91E00E942D0689E08093E302FF
:1019900078941092460210924502809145029091EF
:1019A0004602885E9340C8F38091E0026091D202C3
:1019B0000E9472047894109246021092450280911F
:1019C000450290914602885E9340C8F31092E3026C
:1019D00008958091DF028823C9F01092DF021092EF
:1019E0004402109243028091E202882379F089ED4B
:1019F00090E061E00E943D171092E2028091810028
:101A00008D7F8093810085B1866085B9089580912E
:101A10003902882309F458C080E88093610010924D
:101A2000610086E791E061E00E943D171092390263
:101A300080E49CE90197F1F700B605FC45C08EE211
:101A400084B988E48AB989E087B984E38BB991E0E5
:101A500095B985E08093680090936B0080E3809354
:101A60006D000E942303F999FECF89E090E092BDBA
:101A700081BDF89A80B58093E1028091E1020E94D5
:101A8000A50381E58CBD5B984398F999FECF8AE068
:101A900090E092BD81BDF89A80B58093D3020E94F8
:101AA0007F02A8950E94B30C80E793E061E00E945A
:101AB000DC0280EE96E061E00E94DC0280EC9DE0BA
:101AC00061E00E94DC02A89508951F920F920FB664
:101AD0000F9211242F933F934F935F936F937F93B4
:101AE0008F939F93AF93BF93EF93FF9300B605FE41
:101AF0003BC080913902882309F066C05B9A85B1AA
:101B0000877D85B95E988CB58F7B8CBD80913A02BC
:101B10008823F1F02091DE02F999FECF1FBA85E00B
:101B200090E092BD81BD20BD0FB6F894FA9AF99A63
:101B30000FBE2091E502F999FECF1FBA86E090E032
:101B400092BD81BD20BD0FB6F894FA9AF99A0FBEE6
:101B500089E891E061E00E943D1715BC1092D30224
:101B60001092680045982BC080913902882361F15A
:101B700080913A028823F1F02091DE02F999FECF9C
:101B80001FBA85E090E092BD81BD20BD0FB6F894EC
:101B9000FA9AF99A0FBE2091E502F999FECF1FBA81
:101BA00086E090E092BD81BD20BD0FB6F894FA9A10
:101BB000F99A0FBE8FE791E061E00E943D17E09136
:101BC0003602F09137020995FF91EF91BF91AF91E5
:101BD0009F918F917F916F915F914F913F912F9145
:101BE0000F900FBE0F901F90189588E592E090938C
:101BF00044028093430284E991E061E00E943D1732
:101C00008BEA91E00E942D0689E08093E3027894AC
:101C10001092460210924502809145029091460230
:101C2000885E9340C8F31092E30208951F920F92CA
:101C30000FB60F9211242F933F934F935F936F939F
:101C40007F938F939F93AF93BF93EF93FF931092E4
:101C50006B00789418992AC08091470281FD2BC0AF
:101C6000789410924602109245028091450290911C
:101C700046020A97D0F318991EC00E94B4028091C0
:101C8000E202882319F00E94F50D15C080914702E9
:101C9000826080934702809148028260809348026C
:101CA0008BE891E061E00E943D1705C080914702FA
:101CB0008D7F8093470281E080936B00FF91EF91CD
:101CC000BF91AF919F918F917F916F915F914F9154
:101CD0003F912F910F900FBE0F901F9018951F925C
:101CE0000F920FB60F9211242F933F934F935F9350
:101CF0006F937F938F939F93AF93BF93EF93FF93D4
:101D000010926D007894A8954D9927C08091470254
:101D100080FD28C07894109246021092450280916E
:101D20004502909146020A97D0F34D9963C00E94F4
:101D3000B4028091E2028823C9F580914702816054
:101D4000809347028091480281608093480281E934
:101D500091E061E00E943D1705C0809147028E7FAF
:101D6000809347024C993FC08091470282FD42C058
:101D7000789410924602109245028091450290910B
:101D800046020A97D0F34C9935C082E080934A020C
:101D90001BC04C9B19C00E94B402809147028B7FEC
:101DA000809347028091E202882319F00E94F50D8A
:101DB00021C08EE891E061E00E943D1780914802C9
:101DC00084608093480216C080914A02882309F7F4
:101DD0008091470284608093470280914902846029
:101DE0008093490207C010924902809147028B7F7D
:101DF0008093470280E380936D00FF91EF91BF9144
:101E0000AF919F918F917F916F915F914F913F9192
:101E10002F910F900FBE0F901F901895CF92DF92C9
:101E2000EF92FF920F931F93CF93DF9310913402A1
:101E300000913C028AE080934B02FF249AE0E92E55
:101E40008EE0C82ED12CCDE0D0E08091480280FDFC
:101E5000B4C080914802882321F4809149028823EC
:101E600019F0E0924B0204C080914B02882369F183
:101E70008091480281FF2CC010924802FF2089F413
:101E8000812F602F0E94DC058091D60281608093B3
:101E9000D6028091D70281608093D702FF24F39409
:101EA00017C081E0F81689F4812F602F0E94DC05AD
:101EB0008091D90281608093D9028091DA02816099
:101EC0008093DA02B2E0FB2E03C01092E30275C0E9
:101ED0008091480282FD04C08091490282FFB5CF03
:101EE0001092480281E0F81689F5812F992787FD25
:101EF00090950D9669E170E00E94481B182F1C50C8
:101F0000812F602F0E94DC058091D6028160809332
:101F1000D6028091D70281608093D7021093340259
:101F2000F999FECF1FBAD2BDC1BD10BD0FB6F8944E
:101F3000FA9AF99A0FBE84EB91E00E945E17812F06
:101F4000992787FD90950E94B11726C082E0F81668
:101F500019F5802F90E001966CE370E00E94481B19
:101F6000082F812F602F0E94DC058091D9028160AB
:101F70008093D9028091DA0281608093DA02009323
:101F80003C02F999FECF1FBAD2BCC1BC00BD0FB64E
:101F9000F894FA9AF99A0FBE8091490282FF55CFC0
:101FA00078941092460210924502809145029091D9
:101FB00046028B349105C8F348CFDF91CF911F9132
:101FC0000F91FF90EF90DF90CF9008951F920F92A6
:101FD0000FB60F9211242F933F934F935F936F93FC
:101FE0007F938F939F93AF93BF93EF93FF931DBA0C
:101FF00089E60E94281729B17894789410924602B5
:102000001092450280914502909146020A97D0F3C2
:1020100089B1247030E090E08470907028173907FF
:1020200011F40E94B30C81E08DBBFF91EF91BF9141
:10203000AF919F918F917F916F915F914F913F9160
:102040002F910F900FBE0F901F9018950F931F9315
:10205000DF93CF93CDB7DEB72C970FB6F894DEBFE2
:102060000FBECDBF482F262F8E010F5F1F4FC80117
:1020700060E970E050E030E00E945B18C8010E9407
:102080005E172C960FB6F894DEBF0FBECDBFCF9172
:10209000DF911F910F91089584EA8093BC00809195
:1020A000BC0087FFFCCF6091B900687F683039F0D1
:1020B000603129F088E00E94261081E0089580E0D8
:1020C0000895FF920F931F93CF93DF93182FF62E4F
:1020D000042FE9010E944C10882309F06AC0812F67
:1020E0008E7F8093BB0084E88093BC008091BC000D
:1020F00087FFFCCF8091B900883121F06091B90051
:1021000088E127C0F092BB0084E88093BC008091F6
:10211000BC0087FFFCCF8091B900883221F060912C
:10212000B90088E216C00E944C10882309F041C013
:1021300011601093BB0084E88093BC008091BC00C8
:1021400087FFFCCF8091B900803449F16091B900DC
:1021500080E40E9426102DC0013071F49093BC00E1
:102160008091BC0087FFFCCF8091B900883591F049
:102170006091B90088E5EDCF2093BC008091BC0050
:1021800087FFFCCF8091B900803521F06091B900C4
:1021900080E5DFCF8091BB008993015002C024EC21
:1021A00094E80023C9F684E98093BC0020E030E085
:1021B00004C01092BC002FEF3FEFC901DF91CF9117
:1021C0001F910F91FF9008950F931F93182F062FC3
:1021D0000E944C10882309F053C0812F8E7F80937A
:1021E000BB0084E88093BC008091BC0087FFFCCFDB
:1021F0008091B900883121F06091B90088E135C043
:102200000093BB0084E88093BC008091BC0087FFF2
:10221000FCCF8091B900883221F06091B90088E24A
:1022200024C00E944C10882359F511601093BB0004
:1022300084E88093BC008091BC0087FFFCCF809134
:10224000B900803421F06091B90080E40EC084E8C8
:102250008093BC008091BC0087FFFCCF8091B900C7
:10226000883531F06091B90088E50E94261008C0D9
:102270009091BB0084E98093BC00292F30E004C01A
:102280001092BC002FEF3FEFC9011F910F910895ED
:102290000F931F93DF93CF93CDB7DEB727970FB67A
:1022A000F894DEBF0FBECDBFF999FECF8FE090E06E
:1022B00092BD81BDF89A80B5882321F08091E60215
:1022C000846003C08091E6028B7F8093E60280EDFC
:1022D00067E047E08E010F5F1F4F98010E94611079
:1022E000F80121E030E0808190E08217930749F403
:1022F000822F31962F5F3F4F28303105A1F787306D
:1023000049F083EE90E061E00E943D178091E60283
:10231000826080C0F89480ED60E00E94E4108093B9
:10232000E5028E010F5F1F4F80ED60E047E09801EE
:102330000E94611049818091E502242F30E09927A5
:1023400087FD90952817390779F383B5826883BD97
:102350001092B20083B58F7783BD842F82958F70E2
:102360003AE0839FC00111244F70480F4093E5026B
:102370002A81822F82958F70839FC00111242F7034
:10238000280F2093DE022B81822F8F7382958F700E
:10239000839FC00111242F70280F209350022D819C
:1023A000822F82958F70839FC00111242F70280F78
:1023B0002093D4022E81822F8F7182958F70839FFC
:1023C000C00111242F70280F2093E4022F81822F47
:1023D00082958F70839FC00111242F70280F209346
:1023E000D10278948091E6028D7F8093E6028091FD
:1023F000D1026091E4024091D402209150020E94E7
:102400002F02882321F08091E602816003C0809131
:10241000E6028E7F8093E60227960FB6F894DEBF21
:102420000FBECDBFCF91DF911F910F910895FF9205
:102430000F931F93CF93DF93182FF62E042FE901EC
:102440000E944C108823F1F51E7F1093BB0084E896
:102450008093BC008091BC0087FFFCCF8091B900C5
:10246000883121F06091B90088E110C0F092BB0082
:1024700084E88093BC008091BC0087FFFCCF8091F2
:10248000B9008832B1F06091B90088E20E9426104C
:1024900019C088818093BB009093BC008091BC00E0
:1024A00087FFFCCF8091B900883269F721960150EF
:1024B00001C094E8002369F784E98093BC0020E020
:1024C00030E004C01092BC002FEF3FEFC901DF9154
:1024D000CF911F910F91FF9008959F92AF92BF925D
:1024E000CF92DF92EF92FF920F931F93DF93CF93E0
:1024F00000D000D0CDB7DEB78AE080934B0210E069
:102500000AE09924939441E0C42ED12C33E0A32E09
:10251000B12C22E0E22EF12C80914802882321F494
:1025200080914902882319F000934B0205C08091E5
:102530004B02882309F496C08091480280FD39C17E
:102540008091480281FF91C0109248021123D1F47A
:1025500080913802882311F411E006C08BEF90E0DF
:1025600061E00E943D1712E080E00E9454068091D5
:10257000D60281608093D6028091D70281608093D9
:10258000D70273C0113029F480913802882339F0C2
:1025900020C01230E1F4809138028130A9F480919A
:1025A0003802882311F011E001C012E080E00E949F
:1025B00054068091D90281608093D9028091DA0219
:1025C00081608093DA0251C0882339F015C0113040
:1025D00099F480913802813079F480E00E945406A9
:1025E0008091DC0281608093DC028091DD02816059
:1025F0008093DD0213E039C083E68093E30280E03C
:102600000E9454061091D4020091E402F090D1028D
:1026100078948F2D602F412F0E94CA018983812FCA
:102620000E9443018A83802F0E9443018B838F2D58
:102630000E9443018C8380ED63E044E09E012F5FA4
:102640003F4F0E94171280E00E9454067894109227
:1026500046021092450280914502909146028C5D9F
:102660009540C8F31092E302A4C08091480282FD15
:1026700004C08091490282FF4FCF1092480211306E
:1026800079F58091E4028F5F8093E4028091E40207
:102690008D3014F01093E40280E00E945406809183
:1026A0003802882359F48091D60281608093D60243
:1026B0008091D70281608093D7020AC08091D902AD
:1026C00081608093D9028091DA0281608093DA027E
:1026D0008091E402F999FECF1FBAF2BCE1BC53C06D
:1026E000123079F58091D4028F5F8093D40280916B
:1026F000D402803214F09092D40280E00E945406FA
:1027000080913802813059F48091D60281608093A3
:10271000D6028091D70281608093D7020AC080914F
:10272000D90281608093D9028091DA02816080931E
:10273000DA028091D402F999FECF1FBAB2BCA1BCD3
:1027400022C0133031F58091D1028F5F8093D10286
:102750008091D10264E60E94271B9093D10280E011
:102760000E9454068091DC0281608093DC0280919B
:10277000DD0281608093DD028091D102F999FECF64
:102780001FBAD2BCC1BC80BD0FB6F894FA9AF99AB0
:102790000FBE8091490282FFBFCE7894109246020C
:1027A000109245028091450290914602CC97D0F359
:1027B000B3CE0F900F900F900F90CF91DF911F919C
:1027C0000F91FF90EF90DF90CF90BF90AF909F90D0
:1027D0000895FF920F931F93182F062FF42E0E9437
:1027E0004C108823C1F51E7F1093BB0084E88093B2
:1027F000BC008091BC0087FFFCCF8091B90088317C
:1028000021F06091B90088E11DC00093BB0084E80D
:102810008093BC008091BC0087FFFCCF8091B90001
:10282000883269F4F092BB0084E88093BC00809108
:10283000BC0087FFFCCF8091B900883231F06091F5
:10284000B90088E20E94261006C084E98093BC008B
:1028500020E030E004C01092BC002FEF3FEFC90130
:102860001F910F91FF9008959F92AF92BF92CF92C8
:10287000DF92EF92FF920F931F93DF93CF9300D0DD
:102880000F92CDB7DEB7F09050020091DE02E090DB
:10289000E5028AE080934B0210E07AE0972E65E033
:1028A000A62EB12C54E0C52ED12C8091480280FD7B
:1028B00007C180914802882321F48091490288232E
:1028C00019F090924B0205C080914B02882309F4C5
:1028D0006DC08091480281FF6CC0109248021123A4
:1028E000B9F4F09050020091DE02E090E5028F2DE5
:1028F000602F4E2D0E94CA038091D6028160809382
:10290000D6028091D70281608093D70211E051C036
:10291000113089F48F2D602F4E2D0E94CA038091B3
:10292000D90281608093D9028091DA02816080931C
:10293000DA0212E03EC0123011F010E011C08F2D0B
:10294000602F4E2D0E94CA038091DC02816080932B
:10295000DC028091DD0281608093DD0213E029C0FA
:10296000612F695F1F5F80ED412F0E94E9131730CF
:10297000B9F7F09250020093DE02E092E502109265
:10298000B200802F0E9443018A838F2D0E94430151
:102990008B8380ED60E043E09E012F5F3F4F0E94FC
:1029A000171283E091E061E00E943D171092E3026C
:1029B00087C08091480282FD04C08091490282FF55
:1029C00074CF10924802113031F58F2D90E00196AE
:1029D00068E170E00E94481BF82E602F4E2D0E9487
:1029E000CA038091D60281608093D6028091D7027B
:1029F00081608093D702F092500280915002F99941
:102A0000FECF1FBAD2BCC1BC80BD0FB6F894FA9AF3
:102A1000F99A0FBE44C0123039F5802F90E001962C
:102A20006CE370E00E94481B082F8F2D602F4E2D05
:102A30000E94CA038091D90281608093D90280915B
:102A4000DA0281608093DA028091DE02F999FECF8A
:102A50001FBAB2BCA1BC80BD0FB6F894FA9AF99A1D
:102A60000FBE0093DE021BC01330C9F48E2D90E020
:102A700001966CE370E00E94481BE82E8F2D602FBA
:102A80004E2D0E94CA038091DC0281608093DC029B
:102A90008091DD0281608093DD02E092E502809109
:102AA000490282FF02CF78941092460210924502AA
:102AB00080914502909146028B349105C8F3F5CE82
:102AC0000F900F900F90CF91DF911F910F91FF907A
:102AD000EF90DF90CF90BF90AF909F9008959F921E
:102AE000AF92BF92CF92DF92EF92FF920F931F931C
:102AF00015BC569A5E9884B714BE90E00E94941755
:102B000088E10FB6F89480936000109260000FBEC9
:102B10002FE088E190E00FB6F894A89580936000CC
:102B20000FBE20936000A89510923A0287E690E0CD
:102B30000E941B1784E791E061E00E943D178DEC35
:102B400091E00E945E178EED91E00E945E1780E892
:102B500090E00E94B11781EF91E00E945E178EE233
:102B600084B988E48AB989E087B984E38BB911E034
:102B700015B985E08093680010936B0080E3809323
:102B80006D005B9881E691E061E00E943D178EE464
:102B900091E061E00E943D17109369001DBB109207
:102BA000E30285E491E061E00E943D1781E58CBD80
:102BB0000E9423038AE391E061E00E943D17F999A6
:102BC000FECF89E090E092BD81BDF89A80B58093F8
:102BD000E1028091E1020E94A5037894F999FECF69
:102BE0008DE090E092BD81BDF89A80B5809334026B
:102BF000845F893110F010923402F999FECF8EE093
:102C000090E092BD81BDF89A80B580933C028D33EF
:102C100010F010923C02F999FECF8BE090E092BD4B
:102C200081BDF89A80B5809338028DE291E061E031
:102C30000E943D170E947F0280EA9FE061E00E94AF
:102C4000DC0282E291E061E00E943D178091B600D3
:102C500080648093B6008091B60080628093B60055
:102C60001092B00085E08093B10080E8809361000D
:102C70001092610081E0809370000E944811789466
:102C800087E191E061E00E943D170E94AF0182E17F
:102C900091E061E00E943D1783E6982E0BE0B02E94
:102CA00018E0A12EB7E0CB2EA6E0DA2EF5E0EF2E4D
:102CB000E3E0FE2E04E0A89500B605FE03C00E94E6
:102CC0000301F9CF8091480280FF56C0109248025C
:102CD0008091E302853061F1863038F48330F9F079
:102CE0008430A0F4882349F064C08730E1F1873054
:102CF00088F18B3009F05DC024C00093E30284EFBB
:102D000091E00E942D060E94F20455C0F092E30269
:102D10008EEF91E00E942D060E9434144CC0E09288
:102D2000E30287E092E00E942D060E946D1243C0EC
:102D3000B092E30280E192E00E942D060E940E0F05
:102D40003AC0D092E30289E192E00E942D060E94EF
:102D5000EE0831C0C092E30282E292E00E942D06AA
:102D60000E94500828C0A092E3028BE292E00E94E9
:102D70002D060E94E2071FC08091480281FD04C019
:102D80008091480282FF17C0109248029092E3029D
:102D900081E00E945406A895789410924602109201
:102DA000450280914502909146028C5D9540C8F3A2
:102DB000A8951092E302209150028091E60290E0E3
:102DC00081709070332727FD3095820F931F68E143
:102DD00070E00E94481B182F6091DE024091E502CE
:102DE0000E94CA03123009F066CF8091DE028E3154
:102DF00009F061CF8091E502882309F05CCF0E9441
:102E0000481159CF06C090E000009F5F9E31E1F766
:102E100081508823C1F7089548EC50E009C020E1B3
:102E200037E2FA013197F1F721503040D1F7815064
:102E30008823A9F708959093C5008093C40088E182
:102E40008093C1008EE08093C200519A50980895FB
:102E5000982F8091C00085FFFCCF9093C60080E042
:102E600090E008958091C00087FFFCCF8091C6005C
:102E700008958091C00080780895AC0120E007C0DB
:102E80008091C00085FFFCCF3093C6002F5FFA0110
:102E9000E20FF11D3491332399F7662371F080918D
:102EA000C00085FFFCCF8AE08093C6008091C000FF
:102EB00085FFFCCF8DE08093C6000895FC0107C01C
:102EC0008091C00085FFFCCF31969093C600908121
:102ED0009923B1F70895282F982F92959F709A30D3
:102EE00030F48091C00085FFFCCF905D05C08091DB
:102EF000C00085FFFCCF995A9093C600822F90E0C6
:102F00008F7090700A973CF48091C00085FFFCCFD1
:102F10002F70205D06C08091C00085FFFCCF2F7010
:102F2000295A2093C60008951F93182F892F0E94B5
:102F30006B17812F0E946B171F910895EF92FF92DC
:102F40000F931F937B018C01C801AA27BB270E9406
:102F50009417C7010E9494171F910F91FF90EF9053
:102F600008950F931F93CF93DF938C01E0E1F7E275
:102F700040E0C0E0D0E0C801BF010E94341B262F12
:102F8000662329F4442319F4E130F10549F48091D2
:102F9000C00085FFFCCF205D2093C600205341E098
:102FA000CF016AE070E00E94341B2196C530D10544
:102FB00071F0822F90E09C012E9FC0012F9F900DF9
:102FC0003E9F900D1124081B190BFB01D4CFDF91FC
:102FD000CF911F910F9108954F925F926F927F92C0
:102FE0008F929F92AF92BF92CF92DF92EF92FF9219
:102FF0000F931F93CF93DF934B015C01E12C9AEC6D
:10300000F92E9AE9092F9BE3192F4424C0E0D0E060
:10301000C501B401A80197010E945B1BD22E222397
:1030200041F4442031F481E0E816F1040105110572
:1030300061F48091C00085FFFCCF80E3D80ED09270
:10304000C60080EDD80E44244394C801B7012AE09D
:1030500030E040E050E00E945B1BC22E732E642ED5
:10306000552E2196CA30D105A9F06D2D70E080E073
:1030700090E0A80197010E94FC1A861A970AA80AF4
:10308000B90A2C2D372D462D552DC901DA017C01A9
:103090008D01BECFDF91CF911F910F91FF90EF90E7
:1030A000DF90CF90BF90AF909F908F907F906F9068
:1030B0005F904F900895AEE0B0E0E1E6F8E10C9447
:1030C000A61B0D891E898EE08C831A8309838FEFDE
:1030D0009FE79E838D839E01275E3F4FCE01019621
:1030E0006F89788DA9010E947F182F813885020F82
:1030F000131FF80110822E96E4E00C94C21BABE083
:10310000B0E0E5E8F8E10C94981B3C012B015A0172
:10311000FC0117821682838181FD03C06FEF7FEF70
:10312000C6C19AE0892E1E010894211C311CF301AE
:103130002381F20123FD859123FF81912F018823B3
:1031400009F4B2C1853239F423FD859123FF8191C1
:103150002F01853229F490E0B3010E94721AE7CF63
:10316000982FFF24EE249924FFE1FF15D0F09B3225
:1031700069F09C3228F4903259F0933291F40EC0E9
:103180009D3249F0903369F441E024C052E0F52AC1
:1031900084E0F82A28C098E0F92A25C0E0E1FE2A58
:1031A00022C0F7FC29C0892F80538A3070F4F6FEC4
:1031B00005C0989C902C1124980E15C0E89CE02C1A
:1031C0001124E80EF0E2FF2A0EC09E3229F4F6FC2C
:1031D0006BC140E4F42A07C09C3619F450E8F52A84
:1031E00002C0983649F4F20123FD959123FF919195
:1031F0002F01992309F0B8CF892F8554833018F017
:103200008052833038F444E050E0A40EB51E5FE3F2
:1032100059830FC0933631F0933779F0933509F025
:1032200056C020C0F5018081898342E050E0A40EA1
:10323000B51E610101E010E012C0F501C080D1802F
:10324000F6FC03C06FEF7FEF02C0692D70E042E033
:1032500050E0A40EB51EC6010E94671A8C015FE7FC
:10326000F52214C0F501C080D180F6FC03C06FEFD9
:103270007FEF02C0692D70E042E050E0A40EB51E61
:10328000C6010E945C1A8C0150E8F52AF3FE07C0C3
:103290001AC080E290E0B3010E94721AEA948E2D67
:1032A00090E008171907A8F30EC0F601F7FC859106
:1032B000F7FE81916F0190E0B3010E94721AE11054
:1032C000EA94015010400115110579F7EAC09436CF
:1032D00011F0993669F5F7FE08C0F50120813181BA
:1032E0004281538184E090E00AC0F50180819181A0
:1032F0009C01442737FD4095542F82E090E0A80EB2
:10330000B91E9FE6F92257FF09C0509540953095A8
:1033100021953F4F4F4F5F4FE0E8FE2ACA01B901A8
:10332000A1012AE030E00E949E1AD82ED21840C097
:10333000953729F41F2D1F7E2AE030E01DC01F2D78
:10334000197F9F3661F0903720F4983509F0ACC0B2
:103350000FC0903739F0983709F0A6C004C028E0B4
:1033600030E00AC0106114FD146020E130E004C0B8
:1033700014FD166020E132E017FF08C0F5016081FE
:1033800071818281938144E050E008C0F501808121
:103390009181BC0180E090E042E050E0A40EB51EB7
:1033A000A1010E949E1AD82ED2188FE7F82EF12282
:1033B000F6FE0BC05EEFF522D91438F4F4FE07C018
:1033C000F2FC05C08FEEF82202C01D2D01C0192DA0
:1033D000F4FE0DC0FE01ED0DF11D8081803319F466
:1033E00099EEF92208C01F5FF2FE05C003C08F2DC1
:1033F000867809F01F5F0F2DF3FC14C0F0FE0FC09C
:103400001E1510F09D2C0BC09D2C9E0C911A1E2D8C
:1034100006C080E290E0B3010E94721A1F5F1E1581
:10342000C0F304C01E1510F4E11A01C0EE2404FF1D
:103430000FC080E390E0B3010E94721A02FF1DC02A
:1034400001FD03C088E790E00EC088E590E00BC066
:10345000802F867891F001FF02C08BE201C080E2EC
:10346000F7FC8DE290E0B3010E94721A06C080E37F
:1034700090E0B3010E94721A9A94D914C0F3DA94BE
:10348000F101ED0DF11D808190E0B3010E94721AEF
:10349000DD20A9F706C080E290E0B3010E94721A15
:1034A000EA94EE20C1F743CEF30166817781CB0128
:1034B0002B96E2E10C94B41BFC0105906150704026
:1034C0000110D8F7809590958E0F9F1F0895FC01ED
:1034D0006150704001900110D8F7809590958E0F43
:1034E0009F1F08950F931F93CF93DF938C01EB01E0
:1034F0008B8181FF1BC082FF0DC02E813F818C819B
:103500009D812817390764F4E881F9810193F983D3
:10351000E88306C0E885F985802F0995892B31F469
:103520008E819F8101969F838E8302C00FEF1FEFD4
:10353000C801DF91CF911F910F910895FA01AA2739
:10354000283051F1203181F1E8946F936E7F6E5FE6
:103550007F4F8F4F9F4FAF4FB1E03ED0B4E03CD094
:10356000670F781F891F9A1FA11D680F791F8A1F77
:10357000911DA11D6A0F711D811D911DA11D20D0DE
:1035800009F468943F912AE0269F11243019305D98
:103590003193DEF6CF010895462F4770405D419389
:1035A000B3E00FD0C9F7F6CF462F4F70405D4A33D6
:1035B00018F0495D31FD4052419302D0A9F7EACF9E
:1035C000B4E0A6959795879577956795BA95C9F7CD
:1035D00000976105710508959B01AC010A2E0694C0
:1035E0005795479537952795BA95C9F7620F731F79
:1035F000841F951FA01D0895629FD001739FF00145
:10360000829FE00DF11D649FE00DF11D929FF00D72
:10361000839FF00D749FF00D659FF00D9927729FA9
:10362000B00DE11DF91F639FB00DE11DF91FBD0134
:10363000CF0111240895991B79E004C0991F9617B2
:1036400008F0961B881F7A95C9F78095089587FB27
:10365000082E062687FD819567FD6195ECDF0EF447
:10366000919507FC81950895AA1BBB1B51E107C0EA
:10367000AA1FBB1FA617B70710F0A61BB70B881F02
:10368000991F5A95A9F780959095BC01CD01089591
:1036900097FB092E07260AD077FD04D0E5DF06D078
:1036A00000201AF4709561957F4F0895F6F7909574
:1036B00081959F4F0895A1E21A2EAA1BBB1BFD0105
:1036C0000DC0AA1FBB1FEE1FFF1FA217B307E40701
:1036D000F50720F0A21BB30BE40BF50B661F771F59
:1036E000881F991F1A9469F7609570958095909539
:1036F0009B01AC01BD01CF01089597FB092E052662
:103700000ED057FD04D0D7DF0AD0001C38F45095F6
:103710004095309521953F4F4F4F5F4F0895F6F7F5
:1037200090958095709561957F4F8F4F9F4F08952D
:103730002F923F924F925F926F927F928F929F92C1
:10374000AF92BF92CF92DF92EF92FF920F931F93AF
:10375000CF93DF93CDB7DEB7CA1BDB0B0FB6F89460
:10376000DEBF0FBECDBF09942A88398848885F84A0
:103770006E847D848C849B84AA84B984C884DF8011
:10378000EE80FD800C811B81AA81B981CE0FD11DF5
:103790000FB6F894DEBF0FBECDBFED010895F894CB
:0237A000FFCF59
:1037A20073756E646179006D6F6E64617900747512
:1037B2006573646179007765646E7364617900741E
:1037C2006875727364617900667269646179007305
:1037D20061747572646179006A616E006665620087
:1037E2006D6172636800617072696C006D6179006D
:1037F2006A756E65006A756C79006175677374002D
:1038020073657074006F63746F62006E6F76656DBE
:1038120000646563656D007573612D3132687200F5
:103822006575722D3234687200766F6C2068696734
:103832006800766F6C20206C6F7700627269746525
:103842002000616C61726D206F6E00736E6F6F7A13
:10385200696E67000A0D54696D657A6F6E65206F37
:10386200666673657420686F75723A09000A0D48BE
:10387200656C6C6F20576F726C64210A0D000A0D23
:103882004275666665722073697A652069733A09C2
:10389200000A0D0073657420616C61726D007365BE
:1038A200742074696D6500736574206461746500C9
:1038B200736574207A6F6E65007365742062726935
:1038C200740073657420766F6C20007365742072C7
:0638D20065676E00FA00BC
:00000001FF
